{
  "_format": "hh-sol-artifact-1",
  "contractName": "BankCrashTokenV2",
  "sourceName": "contracts/BankCrashTokenV2Test.sol",
  "abi": [
    {
      "inputs": [],
      "stateMutability": "nonpayable",
      "type": "constructor"
    },
    {
      "anonymous": false,
      "inputs": [
        {
          "indexed": true,
          "internalType": "address",
          "name": "owner",
          "type": "address"
        },
        {
          "indexed": true,
          "internalType": "address",
          "name": "spender",
          "type": "address"
        },
        {
          "indexed": false,
          "internalType": "uint256",
          "name": "value",
          "type": "uint256"
        }
      ],
      "name": "Approval",
      "type": "event"
    },
    {
      "anonymous": false,
      "inputs": [
        {
          "indexed": true,
          "internalType": "address",
          "name": "user",
          "type": "address"
        },
        {
          "indexed": false,
          "internalType": "bool",
          "name": "",
          "type": "bool"
        },
        {
          "indexed": false,
          "internalType": "bool",
          "name": "",
          "type": "bool"
        },
        {
          "indexed": false,
          "internalType": "bool",
          "name": "",
          "type": "bool"
        }
      ],
      "name": "BankCrashEventAdded",
      "type": "event"
    },
    {
      "anonymous": false,
      "inputs": [
        {
          "indexed": false,
          "internalType": "uint8",
          "name": "version",
          "type": "uint8"
        }
      ],
      "name": "Initialized",
      "type": "event"
    },
    {
      "anonymous": false,
      "inputs": [
        {
          "indexed": true,
          "internalType": "address",
          "name": "previousOwner",
          "type": "address"
        },
        {
          "indexed": true,
          "internalType": "address",
          "name": "newOwner",
          "type": "address"
        }
      ],
      "name": "OwnershipTransferred",
      "type": "event"
    },
    {
      "anonymous": false,
      "inputs": [
        {
          "indexed": true,
          "internalType": "address",
          "name": "user",
          "type": "address"
        },
        {
          "indexed": false,
          "internalType": "uint256",
          "name": "stakeId",
          "type": "uint256"
        },
        {
          "indexed": false,
          "internalType": "uint256",
          "name": "amount",
          "type": "uint256"
        },
        {
          "indexed": false,
          "internalType": "uint256",
          "name": "endAt",
          "type": "uint256"
        },
        {
          "indexed": false,
          "internalType": "uint256",
          "name": "baseAPY",
          "type": "uint256"
        },
        {
          "indexed": false,
          "internalType": "uint256",
          "name": "maximumAPY",
          "type": "uint256"
        }
      ],
      "name": "StakeCreated",
      "type": "event"
    },
    {
      "anonymous": false,
      "inputs": [
        {
          "indexed": true,
          "internalType": "address",
          "name": "user",
          "type": "address"
        },
        {
          "indexed": false,
          "internalType": "uint256",
          "name": "stakeId",
          "type": "uint256"
        },
        {
          "indexed": false,
          "internalType": "uint256",
          "name": "amount",
          "type": "uint256"
        },
        {
          "indexed": false,
          "internalType": "uint256",
          "name": "reward",
          "type": "uint256"
        }
      ],
      "name": "StakeRemoved",
      "type": "event"
    },
    {
      "anonymous": false,
      "inputs": [
        {
          "indexed": true,
          "internalType": "address",
          "name": "from",
          "type": "address"
        },
        {
          "indexed": true,
          "internalType": "address",
          "name": "to",
          "type": "address"
        },
        {
          "indexed": false,
          "internalType": "uint256",
          "name": "value",
          "type": "uint256"
        }
      ],
      "name": "Transfer",
      "type": "event"
    },
    {
      "inputs": [],
      "name": "INITIAL_SUPPLY",
      "outputs": [
        {
          "internalType": "uint256",
          "name": "",
          "type": "uint256"
        }
      ],
      "stateMutability": "view",
      "type": "function"
    },
    {
      "inputs": [
        {
          "internalType": "address",
          "name": "owner",
          "type": "address"
        },
        {
          "internalType": "address",
          "name": "spender",
          "type": "address"
        }
      ],
      "name": "allowance",
      "outputs": [
        {
          "internalType": "uint256",
          "name": "",
          "type": "uint256"
        }
      ],
      "stateMutability": "view",
      "type": "function"
    },
    {
      "inputs": [
        {
          "internalType": "address",
          "name": "spender",
          "type": "address"
        },
        {
          "internalType": "uint256",
          "name": "amount",
          "type": "uint256"
        }
      ],
      "name": "approve",
      "outputs": [
        {
          "internalType": "bool",
          "name": "",
          "type": "bool"
        }
      ],
      "stateMutability": "nonpayable",
      "type": "function"
    },
    {
      "inputs": [
        {
          "internalType": "address",
          "name": "account",
          "type": "address"
        }
      ],
      "name": "balanceOf",
      "outputs": [
        {
          "internalType": "uint256",
          "name": "",
          "type": "uint256"
        }
      ],
      "stateMutability": "view",
      "type": "function"
    },
    {
      "inputs": [],
      "name": "bankCrashEvents",
      "outputs": [
        {
          "internalType": "uint256",
          "name": "bigCrash",
          "type": "uint256"
        },
        {
          "internalType": "uint256",
          "name": "mediumCrash",
          "type": "uint256"
        },
        {
          "internalType": "uint256",
          "name": "smallCrash",
          "type": "uint256"
        }
      ],
      "stateMutability": "view",
      "type": "function"
    },
    {
      "inputs": [],
      "name": "decimals",
      "outputs": [
        {
          "internalType": "uint8",
          "name": "",
          "type": "uint8"
        }
      ],
      "stateMutability": "view",
      "type": "function"
    },
    {
      "inputs": [
        {
          "internalType": "address",
          "name": "spender",
          "type": "address"
        },
        {
          "internalType": "uint256",
          "name": "subtractedValue",
          "type": "uint256"
        }
      ],
      "name": "decreaseAllowance",
      "outputs": [
        {
          "internalType": "bool",
          "name": "",
          "type": "bool"
        }
      ],
      "stateMutability": "nonpayable",
      "type": "function"
    },
    {
      "inputs": [
        {
          "components": [
            {
              "internalType": "uint256",
              "name": "amount",
              "type": "uint256"
            },
            {
              "internalType": "uint256",
              "name": "createdAt",
              "type": "uint256"
            },
            {
              "internalType": "uint256",
              "name": "endAt",
              "type": "uint256"
            },
            {
              "internalType": "uint256",
              "name": "baseAPY",
              "type": "uint256"
            },
            {
              "internalType": "uint256",
              "name": "maximumAPY",
              "type": "uint256"
            },
            {
              "internalType": "uint256",
              "name": "closedAt",
              "type": "uint256"
            },
            {
              "components": [
                {
                  "internalType": "uint256",
                  "name": "bigCrash",
                  "type": "uint256"
                },
                {
                  "internalType": "uint256",
                  "name": "mediumCrash",
                  "type": "uint256"
                },
                {
                  "internalType": "uint256",
                  "name": "smallCrash",
                  "type": "uint256"
                }
              ],
              "internalType": "struct BankCrashTokenV2.BankCrashEvents",
              "name": "memento",
              "type": "tuple"
            }
          ],
          "internalType": "struct BankCrashTokenV2.Stake",
          "name": "userStake",
          "type": "tuple"
        }
      ],
      "name": "getBonusAPY",
      "outputs": [
        {
          "internalType": "uint256",
          "name": "",
          "type": "uint256"
        }
      ],
      "stateMutability": "view",
      "type": "function"
    },
    {
      "inputs": [
        {
          "internalType": "uint256",
          "name": "_stakeId",
          "type": "uint256"
        }
      ],
      "name": "getStakePenalty",
      "outputs": [
        {
          "internalType": "uint256",
          "name": "",
          "type": "uint256"
        }
      ],
      "stateMutability": "view",
      "type": "function"
    },
    {
      "inputs": [],
      "name": "getStakes",
      "outputs": [
        {
          "components": [
            {
              "internalType": "uint256",
              "name": "amount",
              "type": "uint256"
            },
            {
              "internalType": "uint256",
              "name": "createdAt",
              "type": "uint256"
            },
            {
              "internalType": "uint256",
              "name": "endAt",
              "type": "uint256"
            },
            {
              "internalType": "uint256",
              "name": "baseAPY",
              "type": "uint256"
            },
            {
              "internalType": "uint256",
              "name": "maximumAPY",
              "type": "uint256"
            },
            {
              "internalType": "uint256",
              "name": "closedAt",
              "type": "uint256"
            },
            {
              "components": [
                {
                  "internalType": "uint256",
                  "name": "bigCrash",
                  "type": "uint256"
                },
                {
                  "internalType": "uint256",
                  "name": "mediumCrash",
                  "type": "uint256"
                },
                {
                  "internalType": "uint256",
                  "name": "smallCrash",
                  "type": "uint256"
                }
              ],
              "internalType": "struct BankCrashTokenV2.BankCrashEvents",
              "name": "memento",
              "type": "tuple"
            }
          ],
          "internalType": "struct BankCrashTokenV2.Stake[]",
          "name": "",
          "type": "tuple[]"
        }
      ],
      "stateMutability": "view",
      "type": "function"
    },
    {
      "inputs": [
        {
          "internalType": "address",
          "name": "spender",
          "type": "address"
        },
        {
          "internalType": "uint256",
          "name": "addedValue",
          "type": "uint256"
        }
      ],
      "name": "increaseAllowance",
      "outputs": [
        {
          "internalType": "bool",
          "name": "",
          "type": "bool"
        }
      ],
      "stateMutability": "nonpayable",
      "type": "function"
    },
    {
      "inputs": [],
      "name": "initialize",
      "outputs": [],
      "stateMutability": "nonpayable",
      "type": "function"
    },
    {
      "inputs": [],
      "name": "name",
      "outputs": [
        {
          "internalType": "string",
          "name": "",
          "type": "string"
        }
      ],
      "stateMutability": "view",
      "type": "function"
    },
    {
      "inputs": [
        {
          "internalType": "address",
          "name": "",
          "type": "address"
        }
      ],
      "name": "nextStakeId",
      "outputs": [
        {
          "internalType": "uint256",
          "name": "",
          "type": "uint256"
        }
      ],
      "stateMutability": "view",
      "type": "function"
    },
    {
      "inputs": [],
      "name": "owner",
      "outputs": [
        {
          "internalType": "address",
          "name": "",
          "type": "address"
        }
      ],
      "stateMutability": "view",
      "type": "function"
    },
    {
      "inputs": [],
      "name": "renounceOwnership",
      "outputs": [],
      "stateMutability": "nonpayable",
      "type": "function"
    },
    {
      "inputs": [
        {
          "internalType": "uint256",
          "name": "_amount",
          "type": "uint256"
        },
        {
          "internalType": "uint256",
          "name": "_months",
          "type": "uint256"
        }
      ],
      "name": "stake",
      "outputs": [],
      "stateMutability": "nonpayable",
      "type": "function"
    },
    {
      "inputs": [
        {
          "internalType": "address",
          "name": "",
          "type": "address"
        },
        {
          "internalType": "uint256",
          "name": "",
          "type": "uint256"
        }
      ],
      "name": "stakes",
      "outputs": [
        {
          "internalType": "uint256",
          "name": "amount",
          "type": "uint256"
        },
        {
          "internalType": "uint256",
          "name": "createdAt",
          "type": "uint256"
        },
        {
          "internalType": "uint256",
          "name": "endAt",
          "type": "uint256"
        },
        {
          "internalType": "uint256",
          "name": "baseAPY",
          "type": "uint256"
        },
        {
          "internalType": "uint256",
          "name": "maximumAPY",
          "type": "uint256"
        },
        {
          "internalType": "uint256",
          "name": "closedAt",
          "type": "uint256"
        },
        {
          "components": [
            {
              "internalType": "uint256",
              "name": "bigCrash",
              "type": "uint256"
            },
            {
              "internalType": "uint256",
              "name": "mediumCrash",
              "type": "uint256"
            },
            {
              "internalType": "uint256",
              "name": "smallCrash",
              "type": "uint256"
            }
          ],
          "internalType": "struct BankCrashTokenV2.BankCrashEvents",
          "name": "memento",
          "type": "tuple"
        }
      ],
      "stateMutability": "view",
      "type": "function"
    },
    {
      "inputs": [],
      "name": "symbol",
      "outputs": [
        {
          "internalType": "string",
          "name": "",
          "type": "string"
        }
      ],
      "stateMutability": "view",
      "type": "function"
    },
    {
      "inputs": [],
      "name": "totalSupply",
      "outputs": [
        {
          "internalType": "uint256",
          "name": "",
          "type": "uint256"
        }
      ],
      "stateMutability": "view",
      "type": "function"
    },
    {
      "inputs": [
        {
          "internalType": "address",
          "name": "to",
          "type": "address"
        },
        {
          "internalType": "uint256",
          "name": "amount",
          "type": "uint256"
        }
      ],
      "name": "transfer",
      "outputs": [
        {
          "internalType": "bool",
          "name": "",
          "type": "bool"
        }
      ],
      "stateMutability": "nonpayable",
      "type": "function"
    },
    {
      "inputs": [
        {
          "internalType": "address",
          "name": "from",
          "type": "address"
        },
        {
          "internalType": "address",
          "name": "to",
          "type": "address"
        },
        {
          "internalType": "uint256",
          "name": "amount",
          "type": "uint256"
        }
      ],
      "name": "transferFrom",
      "outputs": [
        {
          "internalType": "bool",
          "name": "",
          "type": "bool"
        }
      ],
      "stateMutability": "nonpayable",
      "type": "function"
    },
    {
      "inputs": [
        {
          "internalType": "address",
          "name": "newOwner",
          "type": "address"
        }
      ],
      "name": "transferOwnership",
      "outputs": [],
      "stateMutability": "nonpayable",
      "type": "function"
    },
    {
      "inputs": [
        {
          "internalType": "uint256",
          "name": "_stakeId",
          "type": "uint256"
        }
      ],
      "name": "unstake",
      "outputs": [],
      "stateMutability": "nonpayable",
      "type": "function"
    },
    {
      "inputs": [
        {
          "internalType": "bool",
          "name": "bigBankCrashEvent",
          "type": "bool"
        },
        {
          "internalType": "bool",
          "name": "mediumBankCrashEvent",
          "type": "bool"
        },
        {
          "internalType": "bool",
          "name": "smallBankCrashEvent",
          "type": "bool"
        }
      ],
      "name": "updateBankCrashEvents",
      "outputs": [],
      "stateMutability": "nonpayable",
      "type": "function"
    }
  ],
  "bytecode": "0x608060405234801561001057600080fd5b5061001961001e565b6100dd565b600054610100900460ff161561008a5760405162461bcd60e51b815260206004820152602760248201527f496e697469616c697a61626c653a20636f6e747261637420697320696e697469604482015266616c697a696e6760c81b606482015260840160405180910390fd5b60005460ff908116146100db576000805460ff191660ff9081179091556040519081527f7f26b83ff96e1f2b6a682f133852f6798a09c465da95921460cefb38474024989060200160405180910390a15b565b61242680620000ed6000396000f3fe608060405234801561001057600080fd5b50600436106101a35760003560e01c8063715018a6116100ee578063a457c2d711610097578063bc4f9eb011610071578063bc4f9eb0146103d4578063dd62ed3e14610401578063df4b47761461043a578063f2fde38b1461044f57600080fd5b8063a457c2d71461039b578063a9059cbb146103ae578063aa9cfa52146103c157600080fd5b80638129fc1c116100c85780638129fc1c146103705780638da5cb5b1461037857806395d89b411461039357600080fd5b8063715018a614610335578063762e54fc1461033d5780637b0472f01461035d57600080fd5b80632ff2e9dc116101505780634ef2372b1161012a5780634ef2372b14610270578063584b62a11461028357806370a082311461030c57600080fd5b80632ff2e9dc1461023a578063313ce5671461024e578063395093511461025d57600080fd5b806318160ddd1161018157806318160ddd1461020a57806323b872dd146102125780632e17de781461022557600080fd5b806306fdde03146101a8578063095ea7b3146101c657806317f4cb8b146101e9575b600080fd5b6101b0610462565b6040516101bd9190611e31565b60405180910390f35b6101d96101d4366004611e9b565b6104f4565b60405190151581526020016101bd565b6101fc6101f7366004611ec5565b61050e565b6040519081526020016101bd565b6035546101fc565b6101d9610220366004611ede565b61062f565b610238610233366004611ec5565b610653565b005b6101fc6c054f529ca52576bc689200000081565b604051601281526020016101bd565b6101d961026b366004611e9b565b6109a6565b61023861027e366004611f28565b6109e5565b6102f9610291366004611e9b565b609a60209081526000928352604080842082529183529181902080546001820154600283015460038401546004850154600586015487516060810189526006880154815260078801549981019990995260089096015496880196909652929591949093909187565b6040516101bd9796959493929190611f73565b6101fc61031a366004611fca565b6001600160a01b031660009081526033602052604090205490565b610238610b10565b6101fc61034b366004611fca565b609b6020526000908152604090205481565b61023861036b366004611fe5565b610b24565b610238610e9d565b6065546040516001600160a01b0390911681526020016101bd565b6101b0611048565b6101d96103a9366004611e9b565b611057565b6101d96103bc366004611e9b565b611101565b6101fc6103cf366004612069565b61110f565b6097546098546099546103e692919083565b604080519384526020840192909252908201526060016101bd565b6101fc61040f366004612102565b6001600160a01b03918216600090815260346020908152604080832093909416825291909152205490565b610442611198565b6040516101bd9190612135565b61023861045d366004611fca565b6112d9565b606060368054610471906121d1565b80601f016020809104026020016040519081016040528092919081815260200182805461049d906121d1565b80156104ea5780601f106104bf576101008083540402835291602001916104ea565b820191906000526020600020905b8154815290600101906020018083116104cd57829003601f168201915b5050505050905090565b600033610502818585611366565b60019150505b92915050565b336000908152609a6020908152604080832084845290915281206001015461057d5760405162461bcd60e51b815260206004820152601960248201527f54686973207374616b6520646f6573206e6f742065786973740000000000000060448201526064015b60405180910390fd5b336000908152609a602090815260408083208584529091528120600181015460028201549192916105ad916114be565b905060006105c88360010154426114be90919063ffffffff16565b905082600201544211156105e157506064949350505050565b60018301546105f390624f1a0061221b565b42101561060557506021949350505050565b8161061182604361222e565b61061b919061225b565b61062690602161221b565b95945050505050565b60003361063d8582856114d1565b610648858585611563565b506001949350505050565b336000908152609a602090815260408083208484529091529020600101546106bd5760405162461bcd60e51b815260206004820152601960248201527f54686973207374616b6520646f6573206e6f74206578697374000000000000006044820152606401610574565b336000908152609a602090815260408083208484529091529020600501541561074d5760405162461bcd60e51b8152602060048201526024808201527f54686973207374616b652068617320616c7265616479206265656e20756e737460448201527f616b6564000000000000000000000000000000000000000000000000000000006064820152608401610574565b336000908152609a602090815260408083208484528252808320815160e08101835281548152600182015481850152600282015481840152600382015460608083019190915260048301546080830152600583015460a0830152835190810184526006830154815260078301549481019490945260088201549284019290925260c08201929092529091906107e19061110f565b905060006107fc82846003015461175790919063ffffffff16565b9050600061088382856040518060e001604052908160008201548152602001600182015481526020016002820154815260200160038201548152602001600482015481526020016005820154815260200160068201604051806060016040529081600082015481526020016001820154815260200160028201548152505081525050611763565b905060006108b060646108aa6108988961050e565b88546108a49087611757565b90611827565b90611833565b90506108bc308261183f565b6040517fa9059cbb00000000000000000000000000000000000000000000000000000000815233600482015260248101829052309063a9059cbb906044016020604051808303816000875af1158015610919573d6000803e3d6000fd5b505050506040513d601f19601f8201168201806040525081019061093d919061226f565b50336000818152609a602090815260408083208a845282529182902042600590910155875482518a8152918201529081018390527fd9323ca80faaaf047170c44ee78d4bd7218de745b437ba055aaf1871e0e6e9049060600160405180910390a2505050505050565b3360008181526034602090815260408083206001600160a01b038716845290915281205490919061050290829086906109e090879061221b565b611366565b6109ed611901565b82806109f65750815b806109fe5750805b610a705760405162461bcd60e51b815260206004820152602c60248201527f4174206c65617374206f6e652062616e6b206372617368206576656e7420736860448201527f6f756c64206265207472756500000000000000000000000000000000000000006064820152608401610574565b8215610a8c5760978054906000610a868361228c565b91905055505b8115610aa85760988054906000610aa28361228c565b91905055505b8015610ac45760998054906000610abe8361228c565b91905055505b604080518415158152831515602082015282151581830152905133917fe99c200312a6706571da9a29a514ed8da91920bc07fa9ba211c879ff99bba356919081900360600190a2505050565b610b18611901565b610b22600061195b565b565b60028111610b9a5760405162461bcd60e51b815260206004820152602860248201527f5374616b696e6720706572696f64206d757374206265206174206c656173742060448201527f33206d6f6e7468730000000000000000000000000000000000000000000000006064820152608401610574565b6078811115610c115760405162461bcd60e51b815260206004820152603860248201527f5374616b696e6720706572696f642063616e206f6e6c79206265206d6178696d60448201527f756d20313230206d6f6e746873202831302079656172732900000000000000006064820152608401610574565b60008211610c875760405162461bcd60e51b815260206004820152602860248201527f5374616b696e6720616d6f756e74206d7573742062652067726561746572207460448201527f68616e207a65726f0000000000000000000000000000000000000000000000006064820152608401610574565b6040517f23b872dd000000000000000000000000000000000000000000000000000000008152336004820152306024820181905260448201849052906323b872dd906064016020604051808303816000875af1158015610ceb573d6000803e3d6000fd5b505050506040513d601f19601f82011682018060405250810190610d0f919061226f565b506000610d1d60038361225b565b610d2890600a61221b565b90506000610d3783600361222e565b610d4290604561221b565b9050426000610d5e610d578662278d00611827565b4290611757565b6040805160e081018252888152602080820186815282840185815260608085018b815260808087018c8152600060a0808a018281528b518088018d526097548152609854818c0152609954818e015260c08c0190815233808552609a8c528d8520609b808e528f872080548852918e528f87209e518f559b5160018f0155995160028e0155965160038d0155935160048c01555160058b01559151805160068b01558089015160078b01558a015160089099019890985596829052938552915486519081529384018d9052948301869052938201899052810187905292935090917f3565f48109c628ce039ba3b5f6daa7004ca580280fd8101024bd193fd6064578910160405180910390a2336000908152609b6020526040902054610e85906001611757565b336000908152609b6020526040902055505050505050565b600054610100900460ff1615808015610ebd5750600054600160ff909116105b80610ed75750303b158015610ed7575060005460ff166001145b610f495760405162461bcd60e51b815260206004820152602e60248201527f496e697469616c697a61626c653a20636f6e747261637420697320616c72656160448201527f647920696e697469616c697a65640000000000000000000000000000000000006064820152608401610574565b6000805460ff191660011790558015610f6c576000805461ff0019166101001790555b610fe06040518060400160405280600e81526020017f42616e6b4372617368546f6b656e0000000000000000000000000000000000008152506040518060400160405280600481526020017f42415348000000000000000000000000000000000000000000000000000000008152506119c5565b610fe8611a3a565b610fff336c054f529ca52576bc689200000061183f565b8015611045576000805461ff0019169055604051600181527f7f26b83ff96e1f2b6a682f133852f6798a09c465da95921460cefb38474024989060200160405180910390a15b50565b606060378054610471906121d1565b3360008181526034602090815260408083206001600160a01b0387168452909152812054909190838110156110f45760405162461bcd60e51b815260206004820152602560248201527f45524332303a2064656372656173656420616c6c6f77616e63652062656c6f7760448201527f207a65726f0000000000000000000000000000000000000000000000000000006064820152608401610574565b6106488286868403611366565b600033610502818585611563565b60c081015151609754600091829161112791906122a5565b905060008360c001516020015160976001015461114491906122a5565b905060008460c001516040015160976002015461116191906122a5565b905061116e81600261222e565b61117983600e61222e565b61118485602a61222e565b61118e919061221b565b610626919061221b565b336000908152609b60205260408120546060919067ffffffffffffffff8111156111c4576111c4612007565b6040519080825280602002602001820160405280156111fd57816020015b6111ea611dd3565b8152602001906001900390816111e25790505b50905060005b336000908152609b60205260409020548110156112d357336000908152609a60209081526040808320848452825291829020825160e08101845281548152600182015481840152600282015481850152600382015460608083019190915260048301546080830152600583015460a083015284519081018552600683015481526007830154938101939093526008909101549282019290925260c082015282518390839081106112b5576112b56122b8565b602002602001018190525080806112cb9061228c565b915050611203565b50919050565b6112e1611901565b6001600160a01b03811661135d5760405162461bcd60e51b815260206004820152602660248201527f4f776e61626c653a206e6577206f776e657220697320746865207a65726f206160448201527f64647265737300000000000000000000000000000000000000000000000000006064820152608401610574565b6110458161195b565b6001600160a01b0383166113e15760405162461bcd60e51b8152602060048201526024808201527f45524332303a20617070726f76652066726f6d20746865207a65726f2061646460448201527f72657373000000000000000000000000000000000000000000000000000000006064820152608401610574565b6001600160a01b03821661145d5760405162461bcd60e51b815260206004820152602260248201527f45524332303a20617070726f766520746f20746865207a65726f20616464726560448201527f73730000000000000000000000000000000000000000000000000000000000006064820152608401610574565b6001600160a01b0383811660008181526034602090815260408083209487168084529482529182902085905590518481527f8c5be1e5ebec7d5bd14f71427d1e84f3dd0314c0f7b2291e5b200ac8c7c3b925910160405180910390a3505050565b60006114ca82846122a5565b9392505050565b6001600160a01b03838116600090815260346020908152604080832093861683529290522054600019811461155d57818110156115505760405162461bcd60e51b815260206004820152601d60248201527f45524332303a20696e73756666696369656e7420616c6c6f77616e63650000006044820152606401610574565b61155d8484848403611366565b50505050565b6001600160a01b0383166115df5760405162461bcd60e51b815260206004820152602560248201527f45524332303a207472616e736665722066726f6d20746865207a65726f20616460448201527f64726573730000000000000000000000000000000000000000000000000000006064820152608401610574565b6001600160a01b03821661165b5760405162461bcd60e51b815260206004820152602360248201527f45524332303a207472616e7366657220746f20746865207a65726f206164647260448201527f65737300000000000000000000000000000000000000000000000000000000006064820152608401610574565b6001600160a01b038316600090815260336020526040902054818110156116ea5760405162461bcd60e51b815260206004820152602660248201527f45524332303a207472616e7366657220616d6f756e742065786365656473206260448201527f616c616e636500000000000000000000000000000000000000000000000000006064820152608401610574565b6001600160a01b0380851660008181526033602052604080822086860390559286168082529083902080548601905591517fddf252ad1be2c89b69c2b068fc378daa952ba7f163c4a11628f55a4df523b3ef9061174a9086815260200190565b60405180910390a361155d565b60006114ca828461221b565b60008061177d8360200151426114be90919063ffffffff16565b9050600061179c846020015185604001516114be90919063ffffffff16565b905083604001514211156117ae578091505b60006117cf6117ca60646108aa89670de0b6b3a7640000611827565b611ab2565b85519091506000906117ed906b033b2e3c9fd0803ce8000000611827565b905060006117fc828487611aeb565b9050600061181a6b033b2e3c9fd0803ce80000006108aa84866114be565b9998505050505050505050565b60006114ca828461222e565b60006114ca828461225b565b6001600160a01b0382166118955760405162461bcd60e51b815260206004820152601f60248201527f45524332303a206d696e7420746f20746865207a65726f2061646472657373006044820152606401610574565b80603560008282546118a7919061221b565b90915550506001600160a01b0382166000818152603360209081526040808320805486019055518481527fddf252ad1be2c89b69c2b068fc378daa952ba7f163c4a11628f55a4df523b3ef910160405180910390a35b5050565b6065546001600160a01b03163314610b225760405162461bcd60e51b815260206004820181905260248201527f4f776e61626c653a2063616c6c6572206973206e6f7420746865206f776e65726044820152606401610574565b606580546001600160a01b038381167fffffffffffffffffffffffff0000000000000000000000000000000000000000831681179093556040519116919082907f8be0079c531659141344cd1fd0a4f28419497f9722a3daafe3b4186f6b6457e090600090a35050565b600054610100900460ff16611a305760405162461bcd60e51b815260206004820152602b60248201527f496e697469616c697a61626c653a20636f6e7472616374206973206e6f74206960448201526a6e697469616c697a696e6760a81b6064820152608401610574565b6118fd8282611b08565b600054610100900460ff16611aa55760405162461bcd60e51b815260206004820152602b60248201527f496e697469616c697a61626c653a20636f6e7472616374206973206e6f74206960448201526a6e697469616c697a696e6760a81b6064820152608401610574565b610b22611b8c565b505050565b6000610508611ac8670de0b6b3a7640000611c00565b611ae6611ad485611c00565b611ae16301e13380611c10565b611c28565b611c59565b6000611b0084611afb8585611cb7565b611d30565b949350505050565b600054610100900460ff16611b735760405162461bcd60e51b815260206004820152602b60248201527f496e697469616c697a61626c653a20636f6e7472616374206973206e6f74206960448201526a6e697469616c697a696e6760a81b6064820152608401610574565b6036611b7f838261231c565b506037611aad828261231c565b600054610100900460ff16611bf75760405162461bcd60e51b815260206004820152602b60248201527f496e697469616c697a61626c653a20636f6e7472616374206973206e6f74206960448201526a6e697469616c697a696e6760a81b6064820152608401610574565b610b223361195b565b600061050882633b9aca00611d63565b6000610508826b033b2e3c9fd0803ce8000000611d63565b600081611c4f611c44856b033b2e3c9fd0803ce8000000611d63565b611ae660028661225b565b6114ca919061225b565b600082611c66838261221b565b91508110156105085760405162461bcd60e51b815260206004820152601460248201527f64732d6d6174682d6164642d6f766572666c6f770000000000000000000000006044820152606401610574565b6000611cc46002836123dc565b600003611cdd576b033b2e3c9fd0803ce8000000611cdf565b825b9050611cec60028361225b565b91505b811561050857611cff8384611d30565b9250611d0c6002836123dc565b15611d1e57611d1b8184611d30565b90505b611d2960028361225b565b9150611cef565b60006b033b2e3c9fd0803ce8000000611c4f611d4c8585611d63565b611ae660026b033b2e3c9fd0803ce800000061225b565b6000811580611d8757508282611d79818361222e565b9250611d85908361225b565b145b6105085760405162461bcd60e51b815260206004820152601460248201527f64732d6d6174682d6d756c2d6f766572666c6f770000000000000000000000006044820152606401610574565b6040518060e00160405280600081526020016000815260200160008152602001600081526020016000815260200160008152602001611e2c60405180606001604052806000815260200160008152602001600081525090565b905290565b600060208083528351808285015260005b81811015611e5e57858101830151858201604001528201611e42565b506000604082860101526040601f19601f8301168501019250505092915050565b80356001600160a01b0381168114611e9657600080fd5b919050565b60008060408385031215611eae57600080fd5b611eb783611e7f565b946020939093013593505050565b600060208284031215611ed757600080fd5b5035919050565b600080600060608486031215611ef357600080fd5b611efc84611e7f565b9250611f0a60208501611e7f565b9150604084013590509250925092565b801515811461104557600080fd5b600080600060608486031215611f3d57600080fd5b8335611f4881611f1a565b92506020840135611f5881611f1a565b91506040840135611f6881611f1a565b809150509250925092565b6000610120820190508882528760208301528660408301528560608301528460808301528360a0830152611fbe60c08301848051825260208082015190830152604090810151910152565b98975050505050505050565b600060208284031215611fdc57600080fd5b6114ca82611e7f565b60008060408385031215611ff857600080fd5b50508035926020909101359150565b634e487b7160e01b600052604160045260246000fd5b60405160e0810167ffffffffffffffff8111828210171561204057612040612007565b60405290565b6040516060810167ffffffffffffffff8111828210171561204057612040612007565b600081830361012081121561207d57600080fd5b61208561201d565b833581526020840135602082015260408401356040820152606084013560608201526080840135608082015260a084013560a0820152606060bf19830112156120cd57600080fd5b6120d5612046565b60c085810135825260e0860135602083015261010090950135604082015293810193909352509092915050565b6000806040838503121561211557600080fd5b61211e83611e7f565b915061212c60208401611e7f565b90509250929050565b602080825282518282018190526000919060409081850190868401855b828110156121c45781518051855286810151878601528581015186860152606080820151908601526080808201519086015260a0808201519086015260c090810151805191860191909152602081015160e0860152604001516101008501526101209093019290850190600101612152565b5091979650505050505050565b600181811c908216806121e557607f821691505b6020821081036112d357634e487b7160e01b600052602260045260246000fd5b634e487b7160e01b600052601160045260246000fd5b8082018082111561050857610508612205565b808202811582820484141761050857610508612205565b634e487b7160e01b600052601260045260246000fd5b60008261226a5761226a612245565b500490565b60006020828403121561228157600080fd5b81516114ca81611f1a565b60006001820161229e5761229e612205565b5060010190565b8181038181111561050857610508612205565b634e487b7160e01b600052603260045260246000fd5b601f821115611aad57600081815260208120601f850160051c810160208610156122f55750805b601f850160051c820191505b8181101561231457828155600101612301565b505050505050565b815167ffffffffffffffff81111561233657612336612007565b61234a8161234484546121d1565b846122ce565b602080601f83116001811461237f57600084156123675750858301515b600019600386901b1c1916600185901b178555612314565b600085815260208120601f198616915b828110156123ae5788860151825594840194600190910190840161238f565b50858210156123cc5787850151600019600388901b60f8161c191681555b5050505050600190811b01905550565b6000826123eb576123eb612245565b50069056fea26469706673582212205f0ca25d3f8378d40be725b6a780d1bbd22941f8ad044e32fec95889566e7ac064736f6c63430008120033",
  "linkReferences": {},
  "deployedLinkReferences": {}
}