{
  "_format": "hh-sol-artifact-1",
  "contractName": "BankCrashTokenV1",
  "sourceName": "contracts/BankCrashTokenV1.sol",
  "abi": [
    {
      "inputs": [],
      "stateMutability": "nonpayable",
      "type": "constructor"
    },
    {
      "anonymous": false,
      "inputs": [
        {
          "indexed": true,
          "internalType": "address",
          "name": "owner",
          "type": "address"
        },
        {
          "indexed": true,
          "internalType": "address",
          "name": "spender",
          "type": "address"
        },
        {
          "indexed": false,
          "internalType": "uint256",
          "name": "value",
          "type": "uint256"
        }
      ],
      "name": "Approval",
      "type": "event"
    },
    {
      "anonymous": false,
      "inputs": [
        {
          "indexed": true,
          "internalType": "address",
          "name": "user",
          "type": "address"
        },
        {
          "indexed": false,
          "internalType": "bool",
          "name": "",
          "type": "bool"
        },
        {
          "indexed": false,
          "internalType": "bool",
          "name": "",
          "type": "bool"
        },
        {
          "indexed": false,
          "internalType": "bool",
          "name": "",
          "type": "bool"
        }
      ],
      "name": "BankCrashEventAdded",
      "type": "event"
    },
    {
      "anonymous": false,
      "inputs": [
        {
          "indexed": false,
          "internalType": "uint8",
          "name": "version",
          "type": "uint8"
        }
      ],
      "name": "Initialized",
      "type": "event"
    },
    {
      "anonymous": false,
      "inputs": [
        {
          "indexed": true,
          "internalType": "address",
          "name": "previousOwner",
          "type": "address"
        },
        {
          "indexed": true,
          "internalType": "address",
          "name": "newOwner",
          "type": "address"
        }
      ],
      "name": "OwnershipTransferred",
      "type": "event"
    },
    {
      "anonymous": false,
      "inputs": [
        {
          "indexed": true,
          "internalType": "address",
          "name": "user",
          "type": "address"
        },
        {
          "indexed": false,
          "internalType": "uint256",
          "name": "stakeId",
          "type": "uint256"
        },
        {
          "indexed": false,
          "internalType": "uint256",
          "name": "amount",
          "type": "uint256"
        },
        {
          "indexed": false,
          "internalType": "uint256",
          "name": "endAt",
          "type": "uint256"
        },
        {
          "indexed": false,
          "internalType": "uint256",
          "name": "baseAPY",
          "type": "uint256"
        },
        {
          "indexed": false,
          "internalType": "uint256",
          "name": "maximumAPY",
          "type": "uint256"
        }
      ],
      "name": "StakeCreated",
      "type": "event"
    },
    {
      "anonymous": false,
      "inputs": [
        {
          "indexed": true,
          "internalType": "address",
          "name": "user",
          "type": "address"
        },
        {
          "indexed": false,
          "internalType": "uint256",
          "name": "stakeId",
          "type": "uint256"
        },
        {
          "indexed": false,
          "internalType": "uint256",
          "name": "amount",
          "type": "uint256"
        },
        {
          "indexed": false,
          "internalType": "uint256",
          "name": "reward",
          "type": "uint256"
        }
      ],
      "name": "StakeRemoved",
      "type": "event"
    },
    {
      "anonymous": false,
      "inputs": [
        {
          "indexed": true,
          "internalType": "address",
          "name": "from",
          "type": "address"
        },
        {
          "indexed": true,
          "internalType": "address",
          "name": "to",
          "type": "address"
        },
        {
          "indexed": false,
          "internalType": "uint256",
          "name": "value",
          "type": "uint256"
        }
      ],
      "name": "Transfer",
      "type": "event"
    },
    {
      "inputs": [],
      "name": "INITIAL_SUPPLY",
      "outputs": [
        {
          "internalType": "uint256",
          "name": "",
          "type": "uint256"
        }
      ],
      "stateMutability": "view",
      "type": "function"
    },
    {
      "inputs": [
        {
          "internalType": "address",
          "name": "owner",
          "type": "address"
        },
        {
          "internalType": "address",
          "name": "spender",
          "type": "address"
        }
      ],
      "name": "allowance",
      "outputs": [
        {
          "internalType": "uint256",
          "name": "",
          "type": "uint256"
        }
      ],
      "stateMutability": "view",
      "type": "function"
    },
    {
      "inputs": [
        {
          "internalType": "address",
          "name": "spender",
          "type": "address"
        },
        {
          "internalType": "uint256",
          "name": "amount",
          "type": "uint256"
        }
      ],
      "name": "approve",
      "outputs": [
        {
          "internalType": "bool",
          "name": "",
          "type": "bool"
        }
      ],
      "stateMutability": "nonpayable",
      "type": "function"
    },
    {
      "inputs": [
        {
          "internalType": "address",
          "name": "account",
          "type": "address"
        }
      ],
      "name": "balanceOf",
      "outputs": [
        {
          "internalType": "uint256",
          "name": "",
          "type": "uint256"
        }
      ],
      "stateMutability": "view",
      "type": "function"
    },
    {
      "inputs": [],
      "name": "bankCrashEvents",
      "outputs": [
        {
          "internalType": "uint256",
          "name": "bigCrash",
          "type": "uint256"
        },
        {
          "internalType": "uint256",
          "name": "mediumCrash",
          "type": "uint256"
        },
        {
          "internalType": "uint256",
          "name": "smallCrash",
          "type": "uint256"
        }
      ],
      "stateMutability": "view",
      "type": "function"
    },
    {
      "inputs": [],
      "name": "decimals",
      "outputs": [
        {
          "internalType": "uint8",
          "name": "",
          "type": "uint8"
        }
      ],
      "stateMutability": "view",
      "type": "function"
    },
    {
      "inputs": [
        {
          "internalType": "address",
          "name": "spender",
          "type": "address"
        },
        {
          "internalType": "uint256",
          "name": "subtractedValue",
          "type": "uint256"
        }
      ],
      "name": "decreaseAllowance",
      "outputs": [
        {
          "internalType": "bool",
          "name": "",
          "type": "bool"
        }
      ],
      "stateMutability": "nonpayable",
      "type": "function"
    },
    {
      "inputs": [
        {
          "internalType": "address",
          "name": "_user",
          "type": "address"
        }
      ],
      "name": "getActiveStakes",
      "outputs": [
        {
          "components": [
            {
              "internalType": "uint256",
              "name": "amount",
              "type": "uint256"
            },
            {
              "internalType": "uint256",
              "name": "createdAt",
              "type": "uint256"
            },
            {
              "internalType": "uint256",
              "name": "endAt",
              "type": "uint256"
            },
            {
              "internalType": "uint256",
              "name": "baseAPY",
              "type": "uint256"
            },
            {
              "internalType": "uint256",
              "name": "maximumAPY",
              "type": "uint256"
            },
            {
              "internalType": "uint256",
              "name": "closedAt",
              "type": "uint256"
            },
            {
              "components": [
                {
                  "internalType": "uint256",
                  "name": "bigCrash",
                  "type": "uint256"
                },
                {
                  "internalType": "uint256",
                  "name": "mediumCrash",
                  "type": "uint256"
                },
                {
                  "internalType": "uint256",
                  "name": "smallCrash",
                  "type": "uint256"
                }
              ],
              "internalType": "struct BankCrashTokenV1.BankCrashEvents",
              "name": "memento",
              "type": "tuple"
            }
          ],
          "internalType": "struct BankCrashTokenV1.Stake[]",
          "name": "",
          "type": "tuple[]"
        }
      ],
      "stateMutability": "view",
      "type": "function"
    },
    {
      "inputs": [
        {
          "components": [
            {
              "internalType": "uint256",
              "name": "amount",
              "type": "uint256"
            },
            {
              "internalType": "uint256",
              "name": "createdAt",
              "type": "uint256"
            },
            {
              "internalType": "uint256",
              "name": "endAt",
              "type": "uint256"
            },
            {
              "internalType": "uint256",
              "name": "baseAPY",
              "type": "uint256"
            },
            {
              "internalType": "uint256",
              "name": "maximumAPY",
              "type": "uint256"
            },
            {
              "internalType": "uint256",
              "name": "closedAt",
              "type": "uint256"
            },
            {
              "components": [
                {
                  "internalType": "uint256",
                  "name": "bigCrash",
                  "type": "uint256"
                },
                {
                  "internalType": "uint256",
                  "name": "mediumCrash",
                  "type": "uint256"
                },
                {
                  "internalType": "uint256",
                  "name": "smallCrash",
                  "type": "uint256"
                }
              ],
              "internalType": "struct BankCrashTokenV1.BankCrashEvents",
              "name": "memento",
              "type": "tuple"
            }
          ],
          "internalType": "struct BankCrashTokenV1.Stake",
          "name": "userStake",
          "type": "tuple"
        }
      ],
      "name": "getBonusAPY",
      "outputs": [
        {
          "internalType": "uint256",
          "name": "",
          "type": "uint256"
        }
      ],
      "stateMutability": "view",
      "type": "function"
    },
    {
      "inputs": [
        {
          "internalType": "uint256",
          "name": "_stakeId",
          "type": "uint256"
        }
      ],
      "name": "getStakePenalty",
      "outputs": [
        {
          "internalType": "uint256",
          "name": "",
          "type": "uint256"
        }
      ],
      "stateMutability": "view",
      "type": "function"
    },
    {
      "inputs": [
        {
          "internalType": "address",
          "name": "_user",
          "type": "address"
        }
      ],
      "name": "getUnstakedStakes",
      "outputs": [
        {
          "components": [
            {
              "internalType": "uint256",
              "name": "amount",
              "type": "uint256"
            },
            {
              "internalType": "uint256",
              "name": "createdAt",
              "type": "uint256"
            },
            {
              "internalType": "uint256",
              "name": "endAt",
              "type": "uint256"
            },
            {
              "internalType": "uint256",
              "name": "baseAPY",
              "type": "uint256"
            },
            {
              "internalType": "uint256",
              "name": "maximumAPY",
              "type": "uint256"
            },
            {
              "internalType": "uint256",
              "name": "closedAt",
              "type": "uint256"
            },
            {
              "components": [
                {
                  "internalType": "uint256",
                  "name": "bigCrash",
                  "type": "uint256"
                },
                {
                  "internalType": "uint256",
                  "name": "mediumCrash",
                  "type": "uint256"
                },
                {
                  "internalType": "uint256",
                  "name": "smallCrash",
                  "type": "uint256"
                }
              ],
              "internalType": "struct BankCrashTokenV1.BankCrashEvents",
              "name": "memento",
              "type": "tuple"
            }
          ],
          "internalType": "struct BankCrashTokenV1.Stake[]",
          "name": "",
          "type": "tuple[]"
        }
      ],
      "stateMutability": "view",
      "type": "function"
    },
    {
      "inputs": [
        {
          "internalType": "address",
          "name": "spender",
          "type": "address"
        },
        {
          "internalType": "uint256",
          "name": "addedValue",
          "type": "uint256"
        }
      ],
      "name": "increaseAllowance",
      "outputs": [
        {
          "internalType": "bool",
          "name": "",
          "type": "bool"
        }
      ],
      "stateMutability": "nonpayable",
      "type": "function"
    },
    {
      "inputs": [],
      "name": "initialize",
      "outputs": [],
      "stateMutability": "nonpayable",
      "type": "function"
    },
    {
      "inputs": [],
      "name": "name",
      "outputs": [
        {
          "internalType": "string",
          "name": "",
          "type": "string"
        }
      ],
      "stateMutability": "view",
      "type": "function"
    },
    {
      "inputs": [
        {
          "internalType": "address",
          "name": "",
          "type": "address"
        }
      ],
      "name": "nextStakeId",
      "outputs": [
        {
          "internalType": "uint256",
          "name": "",
          "type": "uint256"
        }
      ],
      "stateMutability": "view",
      "type": "function"
    },
    {
      "inputs": [],
      "name": "owner",
      "outputs": [
        {
          "internalType": "address",
          "name": "",
          "type": "address"
        }
      ],
      "stateMutability": "view",
      "type": "function"
    },
    {
      "inputs": [],
      "name": "renounceOwnership",
      "outputs": [],
      "stateMutability": "nonpayable",
      "type": "function"
    },
    {
      "inputs": [
        {
          "internalType": "uint256",
          "name": "_amount",
          "type": "uint256"
        },
        {
          "internalType": "uint256",
          "name": "_months",
          "type": "uint256"
        }
      ],
      "name": "stake",
      "outputs": [],
      "stateMutability": "nonpayable",
      "type": "function"
    },
    {
      "inputs": [
        {
          "internalType": "address",
          "name": "",
          "type": "address"
        },
        {
          "internalType": "uint256",
          "name": "",
          "type": "uint256"
        }
      ],
      "name": "stakes",
      "outputs": [
        {
          "internalType": "uint256",
          "name": "amount",
          "type": "uint256"
        },
        {
          "internalType": "uint256",
          "name": "createdAt",
          "type": "uint256"
        },
        {
          "internalType": "uint256",
          "name": "endAt",
          "type": "uint256"
        },
        {
          "internalType": "uint256",
          "name": "baseAPY",
          "type": "uint256"
        },
        {
          "internalType": "uint256",
          "name": "maximumAPY",
          "type": "uint256"
        },
        {
          "internalType": "uint256",
          "name": "closedAt",
          "type": "uint256"
        },
        {
          "components": [
            {
              "internalType": "uint256",
              "name": "bigCrash",
              "type": "uint256"
            },
            {
              "internalType": "uint256",
              "name": "mediumCrash",
              "type": "uint256"
            },
            {
              "internalType": "uint256",
              "name": "smallCrash",
              "type": "uint256"
            }
          ],
          "internalType": "struct BankCrashTokenV1.BankCrashEvents",
          "name": "memento",
          "type": "tuple"
        }
      ],
      "stateMutability": "view",
      "type": "function"
    },
    {
      "inputs": [],
      "name": "symbol",
      "outputs": [
        {
          "internalType": "string",
          "name": "",
          "type": "string"
        }
      ],
      "stateMutability": "view",
      "type": "function"
    },
    {
      "inputs": [],
      "name": "totalSupply",
      "outputs": [
        {
          "internalType": "uint256",
          "name": "",
          "type": "uint256"
        }
      ],
      "stateMutability": "view",
      "type": "function"
    },
    {
      "inputs": [
        {
          "internalType": "address",
          "name": "to",
          "type": "address"
        },
        {
          "internalType": "uint256",
          "name": "amount",
          "type": "uint256"
        }
      ],
      "name": "transfer",
      "outputs": [
        {
          "internalType": "bool",
          "name": "",
          "type": "bool"
        }
      ],
      "stateMutability": "nonpayable",
      "type": "function"
    },
    {
      "inputs": [
        {
          "internalType": "address",
          "name": "from",
          "type": "address"
        },
        {
          "internalType": "address",
          "name": "to",
          "type": "address"
        },
        {
          "internalType": "uint256",
          "name": "amount",
          "type": "uint256"
        }
      ],
      "name": "transferFrom",
      "outputs": [
        {
          "internalType": "bool",
          "name": "",
          "type": "bool"
        }
      ],
      "stateMutability": "nonpayable",
      "type": "function"
    },
    {
      "inputs": [
        {
          "internalType": "address",
          "name": "newOwner",
          "type": "address"
        }
      ],
      "name": "transferOwnership",
      "outputs": [],
      "stateMutability": "nonpayable",
      "type": "function"
    },
    {
      "inputs": [
        {
          "internalType": "uint256",
          "name": "_stakeId",
          "type": "uint256"
        }
      ],
      "name": "unstake",
      "outputs": [],
      "stateMutability": "nonpayable",
      "type": "function"
    },
    {
      "inputs": [
        {
          "internalType": "bool",
          "name": "bigBankCrashEvent",
          "type": "bool"
        },
        {
          "internalType": "bool",
          "name": "mediumBankCrashEvent",
          "type": "bool"
        },
        {
          "internalType": "bool",
          "name": "smallBankCrashEvent",
          "type": "bool"
        }
      ],
      "name": "updateBankCrashEvents",
      "outputs": [],
      "stateMutability": "nonpayable",
      "type": "function"
    }
  ],
  "bytecode": "0x60806040523480156200001157600080fd5b506200001c62000022565b620000e3565b600054610100900460ff16156200008f5760405162461bcd60e51b815260206004820152602760248201527f496e697469616c697a61626c653a20636f6e747261637420697320696e697469604482015266616c697a696e6760c81b606482015260840160405180910390fd5b60005460ff90811614620000e1576000805460ff191660ff9081179091556040519081527f7f26b83ff96e1f2b6a682f133852f6798a09c465da95921460cefb38474024989060200160405180910390a15b565b6126f480620000f36000396000f3fe608060405234801561001057600080fd5b50600436106101ae5760003560e01c806370a08231116100ee57806395d89b4111610097578063aa9cfa5211610071578063aa9cfa52146103ff578063bc4f9eb014610412578063dd62ed3e1461043f578063f2fde38b1461047857600080fd5b806395d89b41146103d1578063a457c2d7146103d9578063a9059cbb146103ec57600080fd5b80637b0472f0116100c85780637b0472f01461039b5780638129fc1c146103ae5780638da5cb5b146103b657600080fd5b806370a082311461034a578063715018a614610373578063762e54fc1461037b57600080fd5b80632e17de781161015b5780633306e97e116101355780633306e97e14610288578063395093511461029b5780634ef2372b146102ae578063584b62a1146102c157600080fd5b80632e17de78146102505780632ff2e9dc14610265578063313ce5671461027957600080fd5b806317f4cb8b1161018c57806317f4cb8b1461021457806318160ddd1461023557806323b872dd1461023d57600080fd5b806306fdde03146101b3578063095ea7b3146101d15780631747e0b0146101f4575b600080fd5b6101bb61048b565b6040516101c891906120f9565b60405180910390f35b6101e46101df366004612163565b61051d565b60405190151581526020016101c8565b61020761020236600461218d565b610537565b6040516101c891906121a8565b610227610222366004612244565b61072d565b6040519081526020016101c8565b603554610227565b6101e461024b36600461225d565b61084e565b61026361025e366004612244565b610872565b005b6102276c054f529ca52576bc689200000081565b604051601281526020016101c8565b61020761029636600461218d565b610bc5565b6101e46102a9366004612163565b610daf565b6102636102bc3660046122a7565b610dee565b6103376102cf366004612163565b609a60209081526000928352604080842082529183529181902080546001820154600283015460038401546004850154600586015487516060810189526006880154815260078801549981019990995260089096015496880196909652929591949093909187565b6040516101c897969594939291906122f2565b61022761035836600461218d565b6001600160a01b031660009081526033602052604090205490565b610263610f19565b61022761038936600461218d565b609b6020526000908152604090205481565b6102636103a9366004612349565b610f2d565b6102636112a6565b6065546040516001600160a01b0390911681526020016101c8565b6101bb611451565b6101e46103e7366004612163565b611460565b6101e46103fa366004612163565b61150a565b61022761040d3660046123cd565b611518565b60975460985460995461042492919083565b604080519384526020840192909252908201526060016101c8565b61022761044d366004612466565b6001600160a01b03918216600090815260346020908152604080832093909416825291909152205490565b61026361048636600461218d565b6115a1565b60606036805461049a90612499565b80601f01602080910402602001604051908101604052809291908181526020018280546104c690612499565b80156105135780601f106104e857610100808354040283529160200191610513565b820191906000526020600020905b8154815290600101906020018083116104f657829003601f168201915b5050505050905090565b60003361052b81858561162e565b60019150505b92915050565b60606000805b6001600160a01b0384166000908152609b60205260409020548110156105aa576001600160a01b0384166000908152609a6020908152604080832084845290915281206005015490036105985781610594816124e9565b9250505b806105a2816124e9565b91505061053d565b5060008167ffffffffffffffff8111156105c6576105c661236b565b6040519080825280602002602001820160405280156105ff57816020015b6105ec61209b565b8152602001906001900390816105e45790505b5090506000805b6001600160a01b0386166000908152609b6020526040902054811015610723576001600160a01b0386166000908152609a602090815260408083208484529091528120600501549003610711576001600160a01b0386166000908152609a60209081526040808320848452825291829020825160e08101845281548152600182015481840152600282015481850152600382015460608083019190915260048301546080830152600583015460a083015284519081018552600683015481526007830154938101939093526008909101549282019290925260c082015283518490849081106106f7576106f7612502565b6020026020010181905250818061070d906124e9565b9250505b8061071b816124e9565b915050610606565b5090949350505050565b336000908152609a6020908152604080832084845290915281206001015461079c5760405162461bcd60e51b815260206004820152601960248201527f54686973207374616b6520646f6573206e6f742065786973740000000000000060448201526064015b60405180910390fd5b336000908152609a602090815260408083208584529091528120600181015460028201549192916107cc91611786565b905060006107e783600101544261178690919063ffffffff16565b9050826002015442111561080057506064949350505050565b600183015461081290624f1a00612518565b42101561082457506021949350505050565b8161083082604361252b565b61083a9190612558565b610845906021612518565b95945050505050565b60003361085c858285611799565b61086785858561182b565b506001949350505050565b336000908152609a602090815260408083208484529091529020600101546108dc5760405162461bcd60e51b815260206004820152601960248201527f54686973207374616b6520646f6573206e6f74206578697374000000000000006044820152606401610793565b336000908152609a602090815260408083208484529091529020600501541561096c5760405162461bcd60e51b8152602060048201526024808201527f54686973207374616b652068617320616c7265616479206265656e20756e737460448201527f616b6564000000000000000000000000000000000000000000000000000000006064820152608401610793565b336000908152609a602090815260408083208484528252808320815160e08101835281548152600182015481850152600282015481840152600382015460608083019190915260048301546080830152600583015460a0830152835190810184526006830154815260078301549481019490945260088201549284019290925260c0820192909252909190610a0090611518565b90506000610a1b828460030154611a1f90919063ffffffff16565b90506000610aa282856040518060e001604052908160008201548152602001600182015481526020016002820154815260200160038201548152602001600482015481526020016005820154815260200160068201604051806060016040529081600082015481526020016001820154815260200160028201548152505081525050611a2b565b90506000610acf6064610ac9610ab78961072d565b8854610ac39087611a1f565b90611aef565b90611afb565b9050610adb3082611b07565b6040517fa9059cbb00000000000000000000000000000000000000000000000000000000815233600482015260248101829052309063a9059cbb906044016020604051808303816000875af1158015610b38573d6000803e3d6000fd5b505050506040513d601f19601f82011682018060405250810190610b5c919061256c565b50336000818152609a602090815260408083208a845282529182902042600590910155875482518a8152918201529081018390527fd9323ca80faaaf047170c44ee78d4bd7218de745b437ba055aaf1871e0e6e9049060600160405180910390a2505050505050565b60606000805b6001600160a01b0384166000908152609b6020526040902054811015610c37576001600160a01b0384166000908152609a6020908152604080832084845290915290206005015415610c255781610c21816124e9565b9250505b80610c2f816124e9565b915050610bcb565b5060008167ffffffffffffffff811115610c5357610c5361236b565b604051908082528060200260200182016040528015610c8c57816020015b610c7961209b565b815260200190600190039081610c715790505b5090506000805b6001600160a01b0386166000908152609b6020526040902054811015610723576001600160a01b0386166000908152609a6020908152604080832084845290915290206005015415610d9d576001600160a01b0386166000908152609a60209081526040808320848452825291829020825160e08101845281548152600182015481840152600282015481850152600382015460608083019190915260048301546080830152600583015460a083015284519081018552600683015481526007830154938101939093526008909101549282019290925260c08201528351849084908110610d8357610d83612502565b60200260200101819052508180610d99906124e9565b9250505b80610da7816124e9565b915050610c93565b3360008181526034602090815260408083206001600160a01b038716845290915281205490919061052b9082908690610de9908790612518565b61162e565b610df6611bc9565b8280610dff5750815b80610e075750805b610e795760405162461bcd60e51b815260206004820152602c60248201527f4174206c65617374206f6e652062616e6b206372617368206576656e7420736860448201527f6f756c64206265207472756500000000000000000000000000000000000000006064820152608401610793565b8215610e955760978054906000610e8f836124e9565b91905055505b8115610eb15760988054906000610eab836124e9565b91905055505b8015610ecd5760998054906000610ec7836124e9565b91905055505b604080518415158152831515602082015282151581830152905133917fe99c200312a6706571da9a29a514ed8da91920bc07fa9ba211c879ff99bba356919081900360600190a2505050565b610f21611bc9565b610f2b6000611c23565b565b60028111610fa35760405162461bcd60e51b815260206004820152602860248201527f5374616b696e6720706572696f64206d757374206265206174206c656173742060448201527f33206d6f6e7468730000000000000000000000000000000000000000000000006064820152608401610793565b607881111561101a5760405162461bcd60e51b815260206004820152603860248201527f5374616b696e6720706572696f642063616e206f6e6c79206265206d6178696d60448201527f756d20313230206d6f6e746873202831302079656172732900000000000000006064820152608401610793565b600082116110905760405162461bcd60e51b815260206004820152602860248201527f5374616b696e6720616d6f756e74206d7573742062652067726561746572207460448201527f68616e207a65726f0000000000000000000000000000000000000000000000006064820152608401610793565b6040517f23b872dd000000000000000000000000000000000000000000000000000000008152336004820152306024820181905260448201849052906323b872dd906064016020604051808303816000875af11580156110f4573d6000803e3d6000fd5b505050506040513d601f19601f82011682018060405250810190611118919061256c565b506000611126600383612558565b61113190600a612518565b9050600061114083600361252b565b61114b906045612518565b90504260006111676111608662278d00611aef565b4290611a1f565b6040805160e081018252888152602080820186815282840185815260608085018b815260808087018c8152600060a0808a018281528b518088018d526097548152609854818c0152609954818e015260c08c0190815233808552609a8c528d8520609b808e528f872080548852918e528f87209e518f559b5160018f0155995160028e0155965160038d0155935160048c01555160058b01559151805160068b01558089015160078b01558a015160089099019890985596829052938552915486519081529384018d9052948301869052938201899052810187905292935090917f3565f48109c628ce039ba3b5f6daa7004ca580280fd8101024bd193fd6064578910160405180910390a2336000908152609b602052604090205461128e906001611a1f565b336000908152609b6020526040902055505050505050565b600054610100900460ff16158080156112c65750600054600160ff909116105b806112e05750303b1580156112e0575060005460ff166001145b6113525760405162461bcd60e51b815260206004820152602e60248201527f496e697469616c697a61626c653a20636f6e747261637420697320616c72656160448201527f647920696e697469616c697a65640000000000000000000000000000000000006064820152608401610793565b6000805460ff191660011790558015611375576000805461ff0019166101001790555b6113e96040518060400160405280600e81526020017f42616e6b4372617368546f6b656e0000000000000000000000000000000000008152506040518060400160405280600481526020017f4241534800000000000000000000000000000000000000000000000000000000815250611c8d565b6113f1611d02565b611408336c054f529ca52576bc6892000000611b07565b801561144e576000805461ff0019169055604051600181527f7f26b83ff96e1f2b6a682f133852f6798a09c465da95921460cefb38474024989060200160405180910390a15b50565b60606037805461049a90612499565b3360008181526034602090815260408083206001600160a01b0387168452909152812054909190838110156114fd5760405162461bcd60e51b815260206004820152602560248201527f45524332303a2064656372656173656420616c6c6f77616e63652062656c6f7760448201527f207a65726f0000000000000000000000000000000000000000000000000000006064820152608401610793565b610867828686840361162e565b60003361052b81858561182b565b60c08101515160975460009182916115309190612589565b905060008360c001516020015160976001015461154d9190612589565b905060008460c001516040015160976002015461156a9190612589565b905061157781600261252b565b61158283600e61252b565b61158d85602a61252b565b6115979190612518565b6108459190612518565b6115a9611bc9565b6001600160a01b0381166116255760405162461bcd60e51b815260206004820152602660248201527f4f776e61626c653a206e6577206f776e657220697320746865207a65726f206160448201527f64647265737300000000000000000000000000000000000000000000000000006064820152608401610793565b61144e81611c23565b6001600160a01b0383166116a95760405162461bcd60e51b8152602060048201526024808201527f45524332303a20617070726f76652066726f6d20746865207a65726f2061646460448201527f72657373000000000000000000000000000000000000000000000000000000006064820152608401610793565b6001600160a01b0382166117255760405162461bcd60e51b815260206004820152602260248201527f45524332303a20617070726f766520746f20746865207a65726f20616464726560448201527f73730000000000000000000000000000000000000000000000000000000000006064820152608401610793565b6001600160a01b0383811660008181526034602090815260408083209487168084529482529182902085905590518481527f8c5be1e5ebec7d5bd14f71427d1e84f3dd0314c0f7b2291e5b200ac8c7c3b925910160405180910390a3505050565b60006117928284612589565b9392505050565b6001600160a01b03838116600090815260346020908152604080832093861683529290522054600019811461182557818110156118185760405162461bcd60e51b815260206004820152601d60248201527f45524332303a20696e73756666696369656e7420616c6c6f77616e63650000006044820152606401610793565b611825848484840361162e565b50505050565b6001600160a01b0383166118a75760405162461bcd60e51b815260206004820152602560248201527f45524332303a207472616e736665722066726f6d20746865207a65726f20616460448201527f64726573730000000000000000000000000000000000000000000000000000006064820152608401610793565b6001600160a01b0382166119235760405162461bcd60e51b815260206004820152602360248201527f45524332303a207472616e7366657220746f20746865207a65726f206164647260448201527f65737300000000000000000000000000000000000000000000000000000000006064820152608401610793565b6001600160a01b038316600090815260336020526040902054818110156119b25760405162461bcd60e51b815260206004820152602660248201527f45524332303a207472616e7366657220616d6f756e742065786365656473206260448201527f616c616e636500000000000000000000000000000000000000000000000000006064820152608401610793565b6001600160a01b0380851660008181526033602052604080822086860390559286168082529083902080548601905591517fddf252ad1be2c89b69c2b068fc378daa952ba7f163c4a11628f55a4df523b3ef90611a129086815260200190565b60405180910390a3611825565b60006117928284612518565b600080611a4583602001514261178690919063ffffffff16565b90506000611a648460200151856040015161178690919063ffffffff16565b90508360400151421115611a76578091505b6000611a97611a926064610ac989670de0b6b3a7640000611aef565b611d7a565b8551909150600090611ab5906b033b2e3c9fd0803ce8000000611aef565b90506000611ac4828487611db3565b90506000611ae26b033b2e3c9fd0803ce8000000610ac98486611786565b9998505050505050505050565b6000611792828461252b565b60006117928284612558565b6001600160a01b038216611b5d5760405162461bcd60e51b815260206004820152601f60248201527f45524332303a206d696e7420746f20746865207a65726f2061646472657373006044820152606401610793565b8060356000828254611b6f9190612518565b90915550506001600160a01b0382166000818152603360209081526040808320805486019055518481527fddf252ad1be2c89b69c2b068fc378daa952ba7f163c4a11628f55a4df523b3ef910160405180910390a35b5050565b6065546001600160a01b03163314610f2b5760405162461bcd60e51b815260206004820181905260248201527f4f776e61626c653a2063616c6c6572206973206e6f7420746865206f776e65726044820152606401610793565b606580546001600160a01b038381167fffffffffffffffffffffffff0000000000000000000000000000000000000000831681179093556040519116919082907f8be0079c531659141344cd1fd0a4f28419497f9722a3daafe3b4186f6b6457e090600090a35050565b600054610100900460ff16611cf85760405162461bcd60e51b815260206004820152602b60248201527f496e697469616c697a61626c653a20636f6e7472616374206973206e6f74206960448201526a6e697469616c697a696e6760a81b6064820152608401610793565b611bc58282611dd0565b600054610100900460ff16611d6d5760405162461bcd60e51b815260206004820152602b60248201527f496e697469616c697a61626c653a20636f6e7472616374206973206e6f74206960448201526a6e697469616c697a696e6760a81b6064820152608401610793565b610f2b611e54565b505050565b6000610531611d90670de0b6b3a7640000611ec8565b611dae611d9c85611ec8565b611da96301e13380611ed8565b611ef0565b611f21565b6000611dc884611dc38585611f7f565b611ff8565b949350505050565b600054610100900460ff16611e3b5760405162461bcd60e51b815260206004820152602b60248201527f496e697469616c697a61626c653a20636f6e7472616374206973206e6f74206960448201526a6e697469616c697a696e6760a81b6064820152608401610793565b6036611e4783826125ea565b506037611d7582826125ea565b600054610100900460ff16611ebf5760405162461bcd60e51b815260206004820152602b60248201527f496e697469616c697a61626c653a20636f6e7472616374206973206e6f74206960448201526a6e697469616c697a696e6760a81b6064820152608401610793565b610f2b33611c23565b600061053182633b9aca0061202b565b6000610531826b033b2e3c9fd0803ce800000061202b565b600081611f17611f0c856b033b2e3c9fd0803ce800000061202b565b611dae600286612558565b6117929190612558565b600082611f2e8382612518565b91508110156105315760405162461bcd60e51b815260206004820152601460248201527f64732d6d6174682d6164642d6f766572666c6f770000000000000000000000006044820152606401610793565b6000611f8c6002836126aa565b600003611fa5576b033b2e3c9fd0803ce8000000611fa7565b825b9050611fb4600283612558565b91505b811561053157611fc78384611ff8565b9250611fd46002836126aa565b15611fe657611fe38184611ff8565b90505b611ff1600283612558565b9150611fb7565b60006b033b2e3c9fd0803ce8000000611f17612014858561202b565b611dae60026b033b2e3c9fd0803ce8000000612558565b600081158061204f57508282612041818361252b565b925061204d9083612558565b145b6105315760405162461bcd60e51b815260206004820152601460248201527f64732d6d6174682d6d756c2d6f766572666c6f770000000000000000000000006044820152606401610793565b6040518060e001604052806000815260200160008152602001600081526020016000815260200160008152602001600081526020016120f460405180606001604052806000815260200160008152602001600081525090565b905290565b600060208083528351808285015260005b818110156121265785810183015185820160400152820161210a565b506000604082860101526040601f19601f8301168501019250505092915050565b80356001600160a01b038116811461215e57600080fd5b919050565b6000806040838503121561217657600080fd5b61217f83612147565b946020939093013593505050565b60006020828403121561219f57600080fd5b61179282612147565b602080825282518282018190526000919060409081850190868401855b828110156122375781518051855286810151878601528581015186860152606080820151908601526080808201519086015260a0808201519086015260c090810151805191860191909152602081015160e08601526040015161010085015261012090930192908501906001016121c5565b5091979650505050505050565b60006020828403121561225657600080fd5b5035919050565b60008060006060848603121561227257600080fd5b61227b84612147565b925061228960208501612147565b9150604084013590509250925092565b801515811461144e57600080fd5b6000806000606084860312156122bc57600080fd5b83356122c781612299565b925060208401356122d781612299565b915060408401356122e781612299565b809150509250925092565b6000610120820190508882528760208301528660408301528560608301528460808301528360a083015261233d60c08301848051825260208082015190830152604090810151910152565b98975050505050505050565b6000806040838503121561235c57600080fd5b50508035926020909101359150565b634e487b7160e01b600052604160045260246000fd5b60405160e0810167ffffffffffffffff811182821017156123a4576123a461236b565b60405290565b6040516060810167ffffffffffffffff811182821017156123a4576123a461236b565b60008183036101208112156123e157600080fd5b6123e9612381565b833581526020840135602082015260408401356040820152606084013560608201526080840135608082015260a084013560a0820152606060bf198301121561243157600080fd5b6124396123aa565b60c085810135825260e0860135602083015261010090950135604082015293810193909352509092915050565b6000806040838503121561247957600080fd5b61248283612147565b915061249060208401612147565b90509250929050565b600181811c908216806124ad57607f821691505b6020821081036124cd57634e487b7160e01b600052602260045260246000fd5b50919050565b634e487b7160e01b600052601160045260246000fd5b6000600182016124fb576124fb6124d3565b5060010190565b634e487b7160e01b600052603260045260246000fd5b80820180821115610531576105316124d3565b8082028115828204841417610531576105316124d3565b634e487b7160e01b600052601260045260246000fd5b60008261256757612567612542565b500490565b60006020828403121561257e57600080fd5b815161179281612299565b81810381811115610531576105316124d3565b601f821115611d7557600081815260208120601f850160051c810160208610156125c35750805b601f850160051c820191505b818110156125e2578281556001016125cf565b505050505050565b815167ffffffffffffffff8111156126045761260461236b565b612618816126128454612499565b8461259c565b602080601f83116001811461264d57600084156126355750858301515b600019600386901b1c1916600185901b1785556125e2565b600085815260208120601f198616915b8281101561267c5788860151825594840194600190910190840161265d565b508582101561269a5787850151600019600388901b60f8161c191681555b5050505050600190811b01905550565b6000826126b9576126b9612542565b50069056fea26469706673582212201b97a1ea6cf78d1cf479483ada36b7d76da21c395849f86ea11b3c474903cc5f64736f6c63430008120033",
  "linkReferences": {},
  "deployedLinkReferences": {}
}