{
  "_format": "hh-sol-artifact-1",
  "contractName": "TestCrashTokenV1",
  "sourceName": "contracts/TestCrashTokenV1.sol",
  "abi": [
    {
      "inputs": [],
      "stateMutability": "nonpayable",
      "type": "constructor"
    },
    {
      "anonymous": false,
      "inputs": [
        {
          "indexed": true,
          "internalType": "address",
          "name": "owner",
          "type": "address"
        },
        {
          "indexed": true,
          "internalType": "address",
          "name": "spender",
          "type": "address"
        },
        {
          "indexed": false,
          "internalType": "uint256",
          "name": "value",
          "type": "uint256"
        }
      ],
      "name": "Approval",
      "type": "event"
    },
    {
      "anonymous": false,
      "inputs": [
        {
          "indexed": false,
          "internalType": "uint8",
          "name": "version",
          "type": "uint8"
        }
      ],
      "name": "Initialized",
      "type": "event"
    },
    {
      "anonymous": false,
      "inputs": [
        {
          "indexed": true,
          "internalType": "address",
          "name": "previousOwner",
          "type": "address"
        },
        {
          "indexed": true,
          "internalType": "address",
          "name": "newOwner",
          "type": "address"
        }
      ],
      "name": "OwnershipTransferred",
      "type": "event"
    },
    {
      "anonymous": false,
      "inputs": [
        {
          "indexed": true,
          "internalType": "address",
          "name": "user",
          "type": "address"
        },
        {
          "indexed": false,
          "internalType": "uint256",
          "name": "stakeId",
          "type": "uint256"
        },
        {
          "indexed": false,
          "internalType": "uint256",
          "name": "amount",
          "type": "uint256"
        },
        {
          "indexed": false,
          "internalType": "uint256",
          "name": "endAt",
          "type": "uint256"
        },
        {
          "indexed": false,
          "internalType": "uint256",
          "name": "baseAPY",
          "type": "uint256"
        },
        {
          "indexed": false,
          "internalType": "uint256",
          "name": "maximumAPY",
          "type": "uint256"
        }
      ],
      "name": "StakeCreated",
      "type": "event"
    },
    {
      "anonymous": false,
      "inputs": [
        {
          "indexed": true,
          "internalType": "address",
          "name": "user",
          "type": "address"
        },
        {
          "indexed": false,
          "internalType": "uint256",
          "name": "stakeId",
          "type": "uint256"
        },
        {
          "indexed": false,
          "internalType": "uint256",
          "name": "amount",
          "type": "uint256"
        },
        {
          "indexed": false,
          "internalType": "uint256",
          "name": "reward",
          "type": "uint256"
        }
      ],
      "name": "StakeRemoved",
      "type": "event"
    },
    {
      "anonymous": false,
      "inputs": [
        {
          "indexed": true,
          "internalType": "address",
          "name": "user",
          "type": "address"
        },
        {
          "indexed": false,
          "internalType": "bool",
          "name": "",
          "type": "bool"
        },
        {
          "indexed": false,
          "internalType": "bool",
          "name": "",
          "type": "bool"
        },
        {
          "indexed": false,
          "internalType": "bool",
          "name": "",
          "type": "bool"
        }
      ],
      "name": "TestCrashEventAdded",
      "type": "event"
    },
    {
      "anonymous": false,
      "inputs": [
        {
          "indexed": true,
          "internalType": "address",
          "name": "from",
          "type": "address"
        },
        {
          "indexed": true,
          "internalType": "address",
          "name": "to",
          "type": "address"
        },
        {
          "indexed": false,
          "internalType": "uint256",
          "name": "value",
          "type": "uint256"
        }
      ],
      "name": "Transfer",
      "type": "event"
    },
    {
      "inputs": [],
      "name": "INITIAL_SUPPLY",
      "outputs": [
        {
          "internalType": "uint256",
          "name": "",
          "type": "uint256"
        }
      ],
      "stateMutability": "view",
      "type": "function"
    },
    {
      "inputs": [
        {
          "internalType": "address",
          "name": "owner",
          "type": "address"
        },
        {
          "internalType": "address",
          "name": "spender",
          "type": "address"
        }
      ],
      "name": "allowance",
      "outputs": [
        {
          "internalType": "uint256",
          "name": "",
          "type": "uint256"
        }
      ],
      "stateMutability": "view",
      "type": "function"
    },
    {
      "inputs": [
        {
          "internalType": "address",
          "name": "spender",
          "type": "address"
        },
        {
          "internalType": "uint256",
          "name": "amount",
          "type": "uint256"
        }
      ],
      "name": "approve",
      "outputs": [
        {
          "internalType": "bool",
          "name": "",
          "type": "bool"
        }
      ],
      "stateMutability": "nonpayable",
      "type": "function"
    },
    {
      "inputs": [
        {
          "internalType": "address",
          "name": "account",
          "type": "address"
        }
      ],
      "name": "balanceOf",
      "outputs": [
        {
          "internalType": "uint256",
          "name": "",
          "type": "uint256"
        }
      ],
      "stateMutability": "view",
      "type": "function"
    },
    {
      "inputs": [],
      "name": "decimals",
      "outputs": [
        {
          "internalType": "uint8",
          "name": "",
          "type": "uint8"
        }
      ],
      "stateMutability": "view",
      "type": "function"
    },
    {
      "inputs": [
        {
          "internalType": "address",
          "name": "spender",
          "type": "address"
        },
        {
          "internalType": "uint256",
          "name": "subtractedValue",
          "type": "uint256"
        }
      ],
      "name": "decreaseAllowance",
      "outputs": [
        {
          "internalType": "bool",
          "name": "",
          "type": "bool"
        }
      ],
      "stateMutability": "nonpayable",
      "type": "function"
    },
    {
      "inputs": [
        {
          "components": [
            {
              "internalType": "uint256",
              "name": "amount",
              "type": "uint256"
            },
            {
              "internalType": "uint256",
              "name": "createdAt",
              "type": "uint256"
            },
            {
              "internalType": "uint256",
              "name": "endAt",
              "type": "uint256"
            },
            {
              "internalType": "uint256",
              "name": "baseAPY",
              "type": "uint256"
            },
            {
              "internalType": "uint256",
              "name": "maximumAPY",
              "type": "uint256"
            },
            {
              "components": [
                {
                  "internalType": "uint256",
                  "name": "bigCrash",
                  "type": "uint256"
                },
                {
                  "internalType": "uint256",
                  "name": "mediumCrash",
                  "type": "uint256"
                },
                {
                  "internalType": "uint256",
                  "name": "smallCrash",
                  "type": "uint256"
                }
              ],
              "internalType": "struct TestCrashTokenV1.TestCrashEvents",
              "name": "memento",
              "type": "tuple"
            }
          ],
          "internalType": "struct TestCrashTokenV1.Stake",
          "name": "userStake",
          "type": "tuple"
        }
      ],
      "name": "getBonusAPY",
      "outputs": [
        {
          "internalType": "uint256",
          "name": "",
          "type": "uint256"
        }
      ],
      "stateMutability": "view",
      "type": "function"
    },
    {
      "inputs": [
        {
          "internalType": "uint256",
          "name": "_stakeId",
          "type": "uint256"
        }
      ],
      "name": "getStakePenalty",
      "outputs": [
        {
          "internalType": "uint256",
          "name": "",
          "type": "uint256"
        }
      ],
      "stateMutability": "view",
      "type": "function"
    },
    {
      "inputs": [
        {
          "internalType": "address",
          "name": "spender",
          "type": "address"
        },
        {
          "internalType": "uint256",
          "name": "addedValue",
          "type": "uint256"
        }
      ],
      "name": "increaseAllowance",
      "outputs": [
        {
          "internalType": "bool",
          "name": "",
          "type": "bool"
        }
      ],
      "stateMutability": "nonpayable",
      "type": "function"
    },
    {
      "inputs": [],
      "name": "initialize",
      "outputs": [],
      "stateMutability": "nonpayable",
      "type": "function"
    },
    {
      "inputs": [],
      "name": "name",
      "outputs": [
        {
          "internalType": "string",
          "name": "",
          "type": "string"
        }
      ],
      "stateMutability": "view",
      "type": "function"
    },
    {
      "inputs": [
        {
          "internalType": "address",
          "name": "",
          "type": "address"
        }
      ],
      "name": "nextStakeId",
      "outputs": [
        {
          "internalType": "uint256",
          "name": "",
          "type": "uint256"
        }
      ],
      "stateMutability": "view",
      "type": "function"
    },
    {
      "inputs": [],
      "name": "owner",
      "outputs": [
        {
          "internalType": "address",
          "name": "",
          "type": "address"
        }
      ],
      "stateMutability": "view",
      "type": "function"
    },
    {
      "inputs": [],
      "name": "renounceOwnership",
      "outputs": [],
      "stateMutability": "nonpayable",
      "type": "function"
    },
    {
      "inputs": [
        {
          "internalType": "uint256",
          "name": "_amount",
          "type": "uint256"
        },
        {
          "internalType": "uint256",
          "name": "_months",
          "type": "uint256"
        }
      ],
      "name": "stake",
      "outputs": [],
      "stateMutability": "nonpayable",
      "type": "function"
    },
    {
      "inputs": [
        {
          "internalType": "address",
          "name": "",
          "type": "address"
        },
        {
          "internalType": "uint256",
          "name": "",
          "type": "uint256"
        }
      ],
      "name": "stakes",
      "outputs": [
        {
          "internalType": "uint256",
          "name": "amount",
          "type": "uint256"
        },
        {
          "internalType": "uint256",
          "name": "createdAt",
          "type": "uint256"
        },
        {
          "internalType": "uint256",
          "name": "endAt",
          "type": "uint256"
        },
        {
          "internalType": "uint256",
          "name": "baseAPY",
          "type": "uint256"
        },
        {
          "internalType": "uint256",
          "name": "maximumAPY",
          "type": "uint256"
        },
        {
          "components": [
            {
              "internalType": "uint256",
              "name": "bigCrash",
              "type": "uint256"
            },
            {
              "internalType": "uint256",
              "name": "mediumCrash",
              "type": "uint256"
            },
            {
              "internalType": "uint256",
              "name": "smallCrash",
              "type": "uint256"
            }
          ],
          "internalType": "struct TestCrashTokenV1.TestCrashEvents",
          "name": "memento",
          "type": "tuple"
        }
      ],
      "stateMutability": "view",
      "type": "function"
    },
    {
      "inputs": [],
      "name": "symbol",
      "outputs": [
        {
          "internalType": "string",
          "name": "",
          "type": "string"
        }
      ],
      "stateMutability": "view",
      "type": "function"
    },
    {
      "inputs": [],
      "name": "testCrashEvents",
      "outputs": [
        {
          "internalType": "uint256",
          "name": "bigCrash",
          "type": "uint256"
        },
        {
          "internalType": "uint256",
          "name": "mediumCrash",
          "type": "uint256"
        },
        {
          "internalType": "uint256",
          "name": "smallCrash",
          "type": "uint256"
        }
      ],
      "stateMutability": "view",
      "type": "function"
    },
    {
      "inputs": [],
      "name": "totalSupply",
      "outputs": [
        {
          "internalType": "uint256",
          "name": "",
          "type": "uint256"
        }
      ],
      "stateMutability": "view",
      "type": "function"
    },
    {
      "inputs": [
        {
          "internalType": "address",
          "name": "to",
          "type": "address"
        },
        {
          "internalType": "uint256",
          "name": "amount",
          "type": "uint256"
        }
      ],
      "name": "transfer",
      "outputs": [
        {
          "internalType": "bool",
          "name": "",
          "type": "bool"
        }
      ],
      "stateMutability": "nonpayable",
      "type": "function"
    },
    {
      "inputs": [
        {
          "internalType": "address",
          "name": "from",
          "type": "address"
        },
        {
          "internalType": "address",
          "name": "to",
          "type": "address"
        },
        {
          "internalType": "uint256",
          "name": "amount",
          "type": "uint256"
        }
      ],
      "name": "transferFrom",
      "outputs": [
        {
          "internalType": "bool",
          "name": "",
          "type": "bool"
        }
      ],
      "stateMutability": "nonpayable",
      "type": "function"
    },
    {
      "inputs": [
        {
          "internalType": "address",
          "name": "newOwner",
          "type": "address"
        }
      ],
      "name": "transferOwnership",
      "outputs": [],
      "stateMutability": "nonpayable",
      "type": "function"
    },
    {
      "inputs": [
        {
          "internalType": "uint256",
          "name": "_stakeId",
          "type": "uint256"
        }
      ],
      "name": "unstake",
      "outputs": [],
      "stateMutability": "nonpayable",
      "type": "function"
    },
    {
      "inputs": [
        {
          "internalType": "bool",
          "name": "bigTestCrashEvent",
          "type": "bool"
        },
        {
          "internalType": "bool",
          "name": "mediumTestCrashEvent",
          "type": "bool"
        },
        {
          "internalType": "bool",
          "name": "smallTestCrashEvent",
          "type": "bool"
        }
      ],
      "name": "updateTestCrashEvents",
      "outputs": [],
      "stateMutability": "nonpayable",
      "type": "function"
    }
  ],
  "bytecode": "0x608060405234801561001057600080fd5b5061001961001e565b6100dd565b600054610100900460ff161561008a5760405162461bcd60e51b815260206004820152602760248201527f496e697469616c697a61626c653a20636f6e747261637420697320696e697469604482015266616c697a696e6760c81b606482015260840160405180910390fd5b60005460ff908116146100db576000805460ff191660ff9081179091556040519081527f7f26b83ff96e1f2b6a682f133852f6798a09c465da95921460cefb38474024989060200160405180910390a15b565b61207880620000ed6000396000f3fe608060405234801561001057600080fd5b50600436106101985760003560e01c8063715018a6116100e3578063a457c2d71161008c578063dd62ed3e11610066578063dd62ed3e1461040a578063f2fde38b14610443578063fe9ada821461045657600080fd5b8063a457c2d7146103b7578063a9059cbb146103ca578063b8d6b564146103dd57600080fd5b80638129fc1c116100bd5780638129fc1c1461038c5780638da5cb5b1461039457806395d89b41146103af57600080fd5b8063715018a614610351578063762e54fc146103595780637b0472f01461037957600080fd5b80632e17de7811610145578063395093511161011f5780633950935114610261578063584b62a11461027457806370a082311461032857600080fd5b80632e17de78146102295780632ff2e9dc1461023e578063313ce5671461025257600080fd5b806317f4cb8b1161017657806317f4cb8b146101fb57806318160ddd1461020e57806323b872dd1461021657600080fd5b806304c5619f1461019d57806306fdde03146101c3578063095ea7b3146101d8575b600080fd5b6101b06101ab366004611bf3565b610469565b6040519081526020015b60405180910390f35b6101cb6104fb565b6040516101ba9190611c81565b6101eb6101e6366004611ceb565b61058d565b60405190151581526020016101ba565b6101b0610209366004611d15565b6105a7565b6035546101b0565b6101eb610224366004611d2e565b6106bf565b61023c610237366004611d15565b6106e3565b005b6101b06c054f529ca52576bc689200000081565b604051601281526020016101ba565b6101eb61026f366004611ceb565b6109be565b6102e4610282366004611ceb565b609a60209081526000928352604080842082529183529181902080546001820154600283015460038401546004850154865160608101885260058701548152600687015498810198909852600790950154958701959095529194909391929086565b604080519687526020808801969096528681019490945260608601929092526080850152805160a08501529182015160c0840152015160e0820152610100016101ba565b6101b0610336366004611d6a565b6001600160a01b031660009081526033602052604090205490565b61023c6109fd565b6101b0610367366004611d6a565b609b6020526000908152604090205481565b61023c610387366004611d85565b610a11565b61023c610d7d565b6065546040516001600160a01b0390911681526020016101ba565b6101cb610f28565b6101eb6103c5366004611ceb565b610f37565b6101eb6103d8366004611ceb565b610fe1565b6097546098546099546103ef92919083565b604080519384526020840192909252908201526060016101ba565b6101b0610418366004611da7565b6001600160a01b03918216600090815260346020908152604080832093909416825291909152205490565b61023c610451366004611d6a565b610fef565b61023c610464366004611de8565b61107c565b60a08101515160975460009182916104819190611e49565b905060008360a001516020015160976001015461049e9190611e49565b905060008460a00151604001516097600201546104bb9190611e49565b90506104c8816002611e5c565b6104d383600e611e5c565b6104de85602a611e5c565b6104e89190611e73565b6104f29190611e73565b95945050505050565b60606036805461050a90611e86565b80601f016020809104026020016040519081016040528092919081815260200182805461053690611e86565b80156105835780601f1061055857610100808354040283529160200191610583565b820191906000526020600020905b81548152906001019060200180831161056657829003601f168201915b5050505050905090565b60003361059b818585611124565b60019150505b92915050565b336000908152609a602090815260408083208484529091528120600101546106165760405162461bcd60e51b815260206004820152601960248201527f54686973207374616b6520646f6573206e6f742065786973740000000000000060448201526064015b60405180910390fd5b336000908152609a602090815260408083208584529091528120600181015460028201549192916106469161127c565b9050600061066183600101544261127c90919063ffffffff16565b9050826002015442111561067a57506064949350505050565b600183015461068c90624f1a00611e73565b42101561069e57506021949350505050565b816106aa826043611e5c565b6106b49190611ed6565b6104f2906021611e73565b6000336106cd85828561128f565b6106d8858585611321565b506001949350505050565b336000908152609a6020908152604080832084845290915290206001015461074d5760405162461bcd60e51b815260206004820152601960248201527f54686973207374616b6520646f6573206e6f7420657869737400000000000000604482015260640161060d565b336000908152609a602090815260408083208484528252808320815160c08101835281548152600182015481850152600282015481840152600382015460608083019190915260048301546080830152835190810184526005830154815260068301549481019490945260078201549284019290925260a08201929092529091906107d790610469565b905060006107f282846003015461151590919063ffffffff16565b9050600061086f82856040518060c0016040529081600082015481526020016001820154815260200160028201548152602001600382015481526020016004820154815260200160058201604051806060016040529081600082015481526020016001820154815260200160028201548152505081525050611521565b9050600061089c6064610896610884896105a7565b88546108909087611515565b906115e5565b906115f1565b90506108a830826115fd565b6040517fa9059cbb00000000000000000000000000000000000000000000000000000000815233600482015260248101829052309063a9059cbb906044016020604051808303816000875af1158015610905573d6000803e3d6000fd5b505050506040513d601f19601f820116820180604052508101906109299190611eea565b50336000818152609a602090815260408083208a8452825280832083815560018101849055600281018490556003810184905560048101849055600581018490556006810184905560070192909255875482518a8152918201529081018390527fd9323ca80faaaf047170c44ee78d4bd7218de745b437ba055aaf1871e0e6e9049060600160405180910390a2505050505050565b3360008181526034602090815260408083206001600160a01b038716845290915281205490919061059b90829086906109f8908790611e73565b611124565b610a056116bf565b610a0f6000611719565b565b60028111610a875760405162461bcd60e51b815260206004820152602860248201527f5374616b696e6720706572696f64206d757374206265206174206c656173742060448201527f33206d6f6e746873000000000000000000000000000000000000000000000000606482015260840161060d565b6078811115610afe5760405162461bcd60e51b815260206004820152603860248201527f5374616b696e6720706572696f642063616e206f6e6c79206265206d6178696d60448201527f756d20313230206d6f6e74687320283130207965617273290000000000000000606482015260840161060d565b60008211610b745760405162461bcd60e51b815260206004820152602860248201527f5374616b696e6720616d6f756e74206d7573742062652067726561746572207460448201527f68616e207a65726f000000000000000000000000000000000000000000000000606482015260840161060d565b6040517f23b872dd000000000000000000000000000000000000000000000000000000008152336004820152306024820181905260448201849052906323b872dd906064016020604051808303816000875af1158015610bd8573d6000803e3d6000fd5b505050506040513d601f19601f82011682018060405250810190610bfc9190611eea565b506000610c0a600383611ed6565b610c1590600a611e73565b90506000610c24836003611e5c565b610c2f906045611e73565b9050426000610c4b610c448662278d006115e5565b4290611515565b6040805160c081018252888152602080820186815282840185815260608085018b815260808087018c815288518085018a52609754815260985481890152609954818b015260a0808a01918252336000818152609a8b528c8120609b808d528e832080548452918d528e83209d518e559a5160018e0155985160028d0155955160038c0155925160048b01559051805160058b01558089015160068b01558a015160079099019890985591829052938552915486519081529384018d9052948301869052938201899052810187905292935090917f3565f48109c628ce039ba3b5f6daa7004ca580280fd8101024bd193fd6064578910160405180910390a2336000908152609b6020526040902054610d65906001611515565b336000908152609b6020526040902055505050505050565b600054610100900460ff1615808015610d9d5750600054600160ff909116105b80610db75750303b158015610db7575060005460ff166001145b610e295760405162461bcd60e51b815260206004820152602e60248201527f496e697469616c697a61626c653a20636f6e747261637420697320616c72656160448201527f647920696e697469616c697a6564000000000000000000000000000000000000606482015260840161060d565b6000805460ff191660011790558015610e4c576000805461ff0019166101001790555b610ec06040518060400160405280600e81526020017f546573744372617368546f6b656e0000000000000000000000000000000000008152506040518060400160405280600481526020017f5445534800000000000000000000000000000000000000000000000000000000815250611783565b610ec86117f8565b610edf336c054f529ca52576bc68920000006115fd565b8015610f25576000805461ff0019169055604051600181527f7f26b83ff96e1f2b6a682f133852f6798a09c465da95921460cefb38474024989060200160405180910390a15b50565b60606037805461050a90611e86565b3360008181526034602090815260408083206001600160a01b038716845290915281205490919083811015610fd45760405162461bcd60e51b815260206004820152602560248201527f45524332303a2064656372656173656420616c6c6f77616e63652062656c6f7760448201527f207a65726f000000000000000000000000000000000000000000000000000000606482015260840161060d565b6106d88286868403611124565b60003361059b818585611321565b610ff76116bf565b6001600160a01b0381166110735760405162461bcd60e51b815260206004820152602660248201527f4f776e61626c653a206e6577206f776e657220697320746865207a65726f206160448201527f6464726573730000000000000000000000000000000000000000000000000000606482015260840161060d565b610f2581611719565b6110846116bf565b82156110a0576097805490600061109a83611f07565b91905055505b81156110bc57609880549060006110b683611f07565b91905055505b80156110d857609980549060006110d283611f07565b91905055505b604080518415158152831515602082015282151581830152905133917f24cbf20df405c80162b1882fca0d720664230b5ed5e65bf8a3eaada485a7c348919081900360600190a2505050565b6001600160a01b03831661119f5760405162461bcd60e51b8152602060048201526024808201527f45524332303a20617070726f76652066726f6d20746865207a65726f2061646460448201527f7265737300000000000000000000000000000000000000000000000000000000606482015260840161060d565b6001600160a01b03821661121b5760405162461bcd60e51b815260206004820152602260248201527f45524332303a20617070726f766520746f20746865207a65726f20616464726560448201527f7373000000000000000000000000000000000000000000000000000000000000606482015260840161060d565b6001600160a01b0383811660008181526034602090815260408083209487168084529482529182902085905590518481527f8c5be1e5ebec7d5bd14f71427d1e84f3dd0314c0f7b2291e5b200ac8c7c3b925910160405180910390a3505050565b60006112888284611e49565b9392505050565b6001600160a01b03838116600090815260346020908152604080832093861683529290522054600019811461131b578181101561130e5760405162461bcd60e51b815260206004820152601d60248201527f45524332303a20696e73756666696369656e7420616c6c6f77616e6365000000604482015260640161060d565b61131b8484848403611124565b50505050565b6001600160a01b03831661139d5760405162461bcd60e51b815260206004820152602560248201527f45524332303a207472616e736665722066726f6d20746865207a65726f20616460448201527f6472657373000000000000000000000000000000000000000000000000000000606482015260840161060d565b6001600160a01b0382166114195760405162461bcd60e51b815260206004820152602360248201527f45524332303a207472616e7366657220746f20746865207a65726f206164647260448201527f6573730000000000000000000000000000000000000000000000000000000000606482015260840161060d565b6001600160a01b038316600090815260336020526040902054818110156114a85760405162461bcd60e51b815260206004820152602660248201527f45524332303a207472616e7366657220616d6f756e742065786365656473206260448201527f616c616e63650000000000000000000000000000000000000000000000000000606482015260840161060d565b6001600160a01b0380851660008181526033602052604080822086860390559286168082529083902080548601905591517fddf252ad1be2c89b69c2b068fc378daa952ba7f163c4a11628f55a4df523b3ef906115089086815260200190565b60405180910390a361131b565b60006112888284611e73565b60008061153b83602001514261127c90919063ffffffff16565b9050600061155a8460200151856040015161127c90919063ffffffff16565b9050836040015142111561156c578091505b600061158d611588606461089689670de0b6b3a76400006115e5565b611870565b85519091506000906115ab906b033b2e3c9fd0803ce80000006115e5565b905060006115ba8284876118a9565b905060006115d86b033b2e3c9fd0803ce8000000610896848661127c565b9998505050505050505050565b60006112888284611e5c565b60006112888284611ed6565b6001600160a01b0382166116535760405162461bcd60e51b815260206004820152601f60248201527f45524332303a206d696e7420746f20746865207a65726f206164647265737300604482015260640161060d565b80603560008282546116659190611e73565b90915550506001600160a01b0382166000818152603360209081526040808320805486019055518481527fddf252ad1be2c89b69c2b068fc378daa952ba7f163c4a11628f55a4df523b3ef910160405180910390a35b5050565b6065546001600160a01b03163314610a0f5760405162461bcd60e51b815260206004820181905260248201527f4f776e61626c653a2063616c6c6572206973206e6f7420746865206f776e6572604482015260640161060d565b606580546001600160a01b038381167fffffffffffffffffffffffff0000000000000000000000000000000000000000831681179093556040519116919082907f8be0079c531659141344cd1fd0a4f28419497f9722a3daafe3b4186f6b6457e090600090a35050565b600054610100900460ff166117ee5760405162461bcd60e51b815260206004820152602b60248201527f496e697469616c697a61626c653a20636f6e7472616374206973206e6f74206960448201526a6e697469616c697a696e6760a81b606482015260840161060d565b6116bb82826118c6565b600054610100900460ff166118635760405162461bcd60e51b815260206004820152602b60248201527f496e697469616c697a61626c653a20636f6e7472616374206973206e6f74206960448201526a6e697469616c697a696e6760a81b606482015260840161060d565b610a0f61194a565b505050565b60006105a1611886670de0b6b3a76400006119be565b6118a4611892856119be565b61189f6301e133806119ce565b6119e6565b611a17565b60006118be846118b98585611a75565b611aee565b949350505050565b600054610100900460ff166119315760405162461bcd60e51b815260206004820152602b60248201527f496e697469616c697a61626c653a20636f6e7472616374206973206e6f74206960448201526a6e697469616c697a696e6760a81b606482015260840161060d565b603661193d8382611f6e565b50603761186b8282611f6e565b600054610100900460ff166119b55760405162461bcd60e51b815260206004820152602b60248201527f496e697469616c697a61626c653a20636f6e7472616374206973206e6f74206960448201526a6e697469616c697a696e6760a81b606482015260840161060d565b610a0f33611719565b60006105a182633b9aca00611b21565b60006105a1826b033b2e3c9fd0803ce8000000611b21565b600081611a0d611a02856b033b2e3c9fd0803ce8000000611b21565b6118a4600286611ed6565b6112889190611ed6565b600082611a248382611e73565b91508110156105a15760405162461bcd60e51b815260206004820152601460248201527f64732d6d6174682d6164642d6f766572666c6f77000000000000000000000000604482015260640161060d565b6000611a8260028361202e565b600003611a9b576b033b2e3c9fd0803ce8000000611a9d565b825b9050611aaa600283611ed6565b91505b81156105a157611abd8384611aee565b9250611aca60028361202e565b15611adc57611ad98184611aee565b90505b611ae7600283611ed6565b9150611aad565b60006b033b2e3c9fd0803ce8000000611a0d611b0a8585611b21565b6118a460026b033b2e3c9fd0803ce8000000611ed6565b6000811580611b4557508282611b378183611e5c565b9250611b439083611ed6565b145b6105a15760405162461bcd60e51b815260206004820152601460248201527f64732d6d6174682d6d756c2d6f766572666c6f77000000000000000000000000604482015260640161060d565b634e487b7160e01b600052604160045260246000fd5b60405160c0810167ffffffffffffffff81118282101715611bca57611bca611b91565b60405290565b6040516060810167ffffffffffffffff81118282101715611bca57611bca611b91565b6000818303610100811215611c0757600080fd5b611c0f611ba7565b83358152602084013560208201526040840135604082015260608401356060820152608084013560808201526060609f1983011215611c4d57600080fd5b611c55611bd0565b60a085810135825260c0860135602083015260e090950135604082015293810193909352509092915050565b600060208083528351808285015260005b81811015611cae57858101830151858201604001528201611c92565b506000604082860101526040601f19601f8301168501019250505092915050565b80356001600160a01b0381168114611ce657600080fd5b919050565b60008060408385031215611cfe57600080fd5b611d0783611ccf565b946020939093013593505050565b600060208284031215611d2757600080fd5b5035919050565b600080600060608486031215611d4357600080fd5b611d4c84611ccf565b9250611d5a60208501611ccf565b9150604084013590509250925092565b600060208284031215611d7c57600080fd5b61128882611ccf565b60008060408385031215611d9857600080fd5b50508035926020909101359150565b60008060408385031215611dba57600080fd5b611dc383611ccf565b9150611dd160208401611ccf565b90509250929050565b8015158114610f2557600080fd5b600080600060608486031215611dfd57600080fd5b8335611e0881611dda565b92506020840135611e1881611dda565b91506040840135611e2881611dda565b809150509250925092565b634e487b7160e01b600052601160045260246000fd5b818103818111156105a1576105a1611e33565b80820281158282048414176105a1576105a1611e33565b808201808211156105a1576105a1611e33565b600181811c90821680611e9a57607f821691505b602082108103611eba57634e487b7160e01b600052602260045260246000fd5b50919050565b634e487b7160e01b600052601260045260246000fd5b600082611ee557611ee5611ec0565b500490565b600060208284031215611efc57600080fd5b815161128881611dda565b600060018201611f1957611f19611e33565b5060010190565b601f82111561186b57600081815260208120601f850160051c81016020861015611f475750805b601f850160051c820191505b81811015611f6657828155600101611f53565b505050505050565b815167ffffffffffffffff811115611f8857611f88611b91565b611f9c81611f968454611e86565b84611f20565b602080601f831160018114611fd15760008415611fb95750858301515b600019600386901b1c1916600185901b178555611f66565b600085815260208120601f198616915b8281101561200057888601518255948401946001909101908401611fe1565b508582101561201e5787850151600019600388901b60f8161c191681555b5050505050600190811b01905550565b60008261203d5761203d611ec0565b50069056fea2646970667358221220fd0caf4fd976140849ed4363fcff5cca18a685caa80f69acec2aa229c9677fd064736f6c63430008120033",
  "linkReferences": {},
  "deployedLinkReferences": {}
}