{
  "_format": "hh-sol-artifact-1",
  "contractName": "TestCrashTokenV2",
  "sourceName": "contracts/TestCrashTokenV2.sol",
  "abi": [
    {
      "inputs": [],
      "stateMutability": "nonpayable",
      "type": "constructor"
    },
    {
      "anonymous": false,
      "inputs": [
        {
          "indexed": true,
          "internalType": "address",
          "name": "owner",
          "type": "address"
        },
        {
          "indexed": true,
          "internalType": "address",
          "name": "spender",
          "type": "address"
        },
        {
          "indexed": false,
          "internalType": "uint256",
          "name": "value",
          "type": "uint256"
        }
      ],
      "name": "Approval",
      "type": "event"
    },
    {
      "anonymous": false,
      "inputs": [
        {
          "indexed": false,
          "internalType": "uint8",
          "name": "version",
          "type": "uint8"
        }
      ],
      "name": "Initialized",
      "type": "event"
    },
    {
      "anonymous": false,
      "inputs": [
        {
          "indexed": true,
          "internalType": "address",
          "name": "previousOwner",
          "type": "address"
        },
        {
          "indexed": true,
          "internalType": "address",
          "name": "newOwner",
          "type": "address"
        }
      ],
      "name": "OwnershipTransferred",
      "type": "event"
    },
    {
      "anonymous": false,
      "inputs": [
        {
          "indexed": true,
          "internalType": "address",
          "name": "user",
          "type": "address"
        },
        {
          "indexed": false,
          "internalType": "uint256",
          "name": "stakeId",
          "type": "uint256"
        },
        {
          "indexed": false,
          "internalType": "uint256",
          "name": "amount",
          "type": "uint256"
        },
        {
          "indexed": false,
          "internalType": "uint256",
          "name": "endAt",
          "type": "uint256"
        },
        {
          "indexed": false,
          "internalType": "uint256",
          "name": "baseAPY",
          "type": "uint256"
        },
        {
          "indexed": false,
          "internalType": "uint256",
          "name": "maximumAPY",
          "type": "uint256"
        }
      ],
      "name": "StakeCreated",
      "type": "event"
    },
    {
      "anonymous": false,
      "inputs": [
        {
          "indexed": true,
          "internalType": "address",
          "name": "user",
          "type": "address"
        },
        {
          "indexed": false,
          "internalType": "uint256",
          "name": "stakeId",
          "type": "uint256"
        },
        {
          "indexed": false,
          "internalType": "uint256",
          "name": "amount",
          "type": "uint256"
        },
        {
          "indexed": false,
          "internalType": "uint256",
          "name": "reward",
          "type": "uint256"
        }
      ],
      "name": "StakeRemoved",
      "type": "event"
    },
    {
      "anonymous": false,
      "inputs": [
        {
          "indexed": true,
          "internalType": "address",
          "name": "user",
          "type": "address"
        },
        {
          "indexed": false,
          "internalType": "bool",
          "name": "",
          "type": "bool"
        },
        {
          "indexed": false,
          "internalType": "bool",
          "name": "",
          "type": "bool"
        },
        {
          "indexed": false,
          "internalType": "bool",
          "name": "",
          "type": "bool"
        }
      ],
      "name": "TestCrashEventAdded",
      "type": "event"
    },
    {
      "anonymous": false,
      "inputs": [
        {
          "indexed": true,
          "internalType": "address",
          "name": "from",
          "type": "address"
        },
        {
          "indexed": true,
          "internalType": "address",
          "name": "to",
          "type": "address"
        },
        {
          "indexed": false,
          "internalType": "uint256",
          "name": "value",
          "type": "uint256"
        }
      ],
      "name": "Transfer",
      "type": "event"
    },
    {
      "inputs": [],
      "name": "INITIAL_SUPPLY",
      "outputs": [
        {
          "internalType": "uint256",
          "name": "",
          "type": "uint256"
        }
      ],
      "stateMutability": "view",
      "type": "function"
    },
    {
      "inputs": [
        {
          "internalType": "address",
          "name": "owner",
          "type": "address"
        },
        {
          "internalType": "address",
          "name": "spender",
          "type": "address"
        }
      ],
      "name": "allowance",
      "outputs": [
        {
          "internalType": "uint256",
          "name": "",
          "type": "uint256"
        }
      ],
      "stateMutability": "view",
      "type": "function"
    },
    {
      "inputs": [
        {
          "internalType": "address",
          "name": "spender",
          "type": "address"
        },
        {
          "internalType": "uint256",
          "name": "amount",
          "type": "uint256"
        }
      ],
      "name": "approve",
      "outputs": [
        {
          "internalType": "bool",
          "name": "",
          "type": "bool"
        }
      ],
      "stateMutability": "nonpayable",
      "type": "function"
    },
    {
      "inputs": [
        {
          "internalType": "address",
          "name": "account",
          "type": "address"
        }
      ],
      "name": "balanceOf",
      "outputs": [
        {
          "internalType": "uint256",
          "name": "",
          "type": "uint256"
        }
      ],
      "stateMutability": "view",
      "type": "function"
    },
    {
      "inputs": [],
      "name": "decimals",
      "outputs": [
        {
          "internalType": "uint8",
          "name": "",
          "type": "uint8"
        }
      ],
      "stateMutability": "view",
      "type": "function"
    },
    {
      "inputs": [
        {
          "internalType": "address",
          "name": "spender",
          "type": "address"
        },
        {
          "internalType": "uint256",
          "name": "subtractedValue",
          "type": "uint256"
        }
      ],
      "name": "decreaseAllowance",
      "outputs": [
        {
          "internalType": "bool",
          "name": "",
          "type": "bool"
        }
      ],
      "stateMutability": "nonpayable",
      "type": "function"
    },
    {
      "inputs": [
        {
          "components": [
            {
              "internalType": "uint256",
              "name": "amount",
              "type": "uint256"
            },
            {
              "internalType": "uint256",
              "name": "createdAt",
              "type": "uint256"
            },
            {
              "internalType": "uint256",
              "name": "endAt",
              "type": "uint256"
            },
            {
              "internalType": "uint256",
              "name": "baseAPY",
              "type": "uint256"
            },
            {
              "internalType": "uint256",
              "name": "maximumAPY",
              "type": "uint256"
            },
            {
              "components": [
                {
                  "internalType": "uint256",
                  "name": "bigCrash",
                  "type": "uint256"
                },
                {
                  "internalType": "uint256",
                  "name": "mediumCrash",
                  "type": "uint256"
                },
                {
                  "internalType": "uint256",
                  "name": "smallCrash",
                  "type": "uint256"
                }
              ],
              "internalType": "struct TestCrashTokenV2.TestCrashEvents",
              "name": "memento",
              "type": "tuple"
            }
          ],
          "internalType": "struct TestCrashTokenV2.Stake",
          "name": "userStake",
          "type": "tuple"
        }
      ],
      "name": "getBonusAPY",
      "outputs": [
        {
          "internalType": "uint256",
          "name": "",
          "type": "uint256"
        }
      ],
      "stateMutability": "view",
      "type": "function"
    },
    {
      "inputs": [
        {
          "internalType": "uint256",
          "name": "_stakeId",
          "type": "uint256"
        }
      ],
      "name": "getStakePenalty",
      "outputs": [
        {
          "internalType": "uint256",
          "name": "",
          "type": "uint256"
        }
      ],
      "stateMutability": "view",
      "type": "function"
    },
    {
      "inputs": [
        {
          "internalType": "address",
          "name": "_user",
          "type": "address"
        }
      ],
      "name": "getStakes",
      "outputs": [
        {
          "components": [
            {
              "internalType": "uint256",
              "name": "amount",
              "type": "uint256"
            },
            {
              "internalType": "uint256",
              "name": "createdAt",
              "type": "uint256"
            },
            {
              "internalType": "uint256",
              "name": "endAt",
              "type": "uint256"
            },
            {
              "internalType": "uint256",
              "name": "baseAPY",
              "type": "uint256"
            },
            {
              "internalType": "uint256",
              "name": "maximumAPY",
              "type": "uint256"
            },
            {
              "components": [
                {
                  "internalType": "uint256",
                  "name": "bigCrash",
                  "type": "uint256"
                },
                {
                  "internalType": "uint256",
                  "name": "mediumCrash",
                  "type": "uint256"
                },
                {
                  "internalType": "uint256",
                  "name": "smallCrash",
                  "type": "uint256"
                }
              ],
              "internalType": "struct TestCrashTokenV2.TestCrashEvents",
              "name": "memento",
              "type": "tuple"
            }
          ],
          "internalType": "struct TestCrashTokenV2.Stake[]",
          "name": "",
          "type": "tuple[]"
        }
      ],
      "stateMutability": "view",
      "type": "function"
    },
    {
      "inputs": [
        {
          "internalType": "address",
          "name": "spender",
          "type": "address"
        },
        {
          "internalType": "uint256",
          "name": "addedValue",
          "type": "uint256"
        }
      ],
      "name": "increaseAllowance",
      "outputs": [
        {
          "internalType": "bool",
          "name": "",
          "type": "bool"
        }
      ],
      "stateMutability": "nonpayable",
      "type": "function"
    },
    {
      "inputs": [],
      "name": "initialize",
      "outputs": [],
      "stateMutability": "nonpayable",
      "type": "function"
    },
    {
      "inputs": [],
      "name": "name",
      "outputs": [
        {
          "internalType": "string",
          "name": "",
          "type": "string"
        }
      ],
      "stateMutability": "view",
      "type": "function"
    },
    {
      "inputs": [
        {
          "internalType": "address",
          "name": "",
          "type": "address"
        }
      ],
      "name": "nextStakeId",
      "outputs": [
        {
          "internalType": "uint256",
          "name": "",
          "type": "uint256"
        }
      ],
      "stateMutability": "view",
      "type": "function"
    },
    {
      "inputs": [],
      "name": "owner",
      "outputs": [
        {
          "internalType": "address",
          "name": "",
          "type": "address"
        }
      ],
      "stateMutability": "view",
      "type": "function"
    },
    {
      "inputs": [],
      "name": "renounceOwnership",
      "outputs": [],
      "stateMutability": "nonpayable",
      "type": "function"
    },
    {
      "inputs": [
        {
          "internalType": "uint256",
          "name": "_amount",
          "type": "uint256"
        },
        {
          "internalType": "uint256",
          "name": "_months",
          "type": "uint256"
        }
      ],
      "name": "stake",
      "outputs": [],
      "stateMutability": "nonpayable",
      "type": "function"
    },
    {
      "inputs": [
        {
          "internalType": "address",
          "name": "",
          "type": "address"
        },
        {
          "internalType": "uint256",
          "name": "",
          "type": "uint256"
        }
      ],
      "name": "stakes",
      "outputs": [
        {
          "internalType": "uint256",
          "name": "amount",
          "type": "uint256"
        },
        {
          "internalType": "uint256",
          "name": "createdAt",
          "type": "uint256"
        },
        {
          "internalType": "uint256",
          "name": "endAt",
          "type": "uint256"
        },
        {
          "internalType": "uint256",
          "name": "baseAPY",
          "type": "uint256"
        },
        {
          "internalType": "uint256",
          "name": "maximumAPY",
          "type": "uint256"
        },
        {
          "components": [
            {
              "internalType": "uint256",
              "name": "bigCrash",
              "type": "uint256"
            },
            {
              "internalType": "uint256",
              "name": "mediumCrash",
              "type": "uint256"
            },
            {
              "internalType": "uint256",
              "name": "smallCrash",
              "type": "uint256"
            }
          ],
          "internalType": "struct TestCrashTokenV2.TestCrashEvents",
          "name": "memento",
          "type": "tuple"
        }
      ],
      "stateMutability": "view",
      "type": "function"
    },
    {
      "inputs": [],
      "name": "symbol",
      "outputs": [
        {
          "internalType": "string",
          "name": "",
          "type": "string"
        }
      ],
      "stateMutability": "view",
      "type": "function"
    },
    {
      "inputs": [],
      "name": "testCrashEvents",
      "outputs": [
        {
          "internalType": "uint256",
          "name": "bigCrash",
          "type": "uint256"
        },
        {
          "internalType": "uint256",
          "name": "mediumCrash",
          "type": "uint256"
        },
        {
          "internalType": "uint256",
          "name": "smallCrash",
          "type": "uint256"
        }
      ],
      "stateMutability": "view",
      "type": "function"
    },
    {
      "inputs": [],
      "name": "totalSupply",
      "outputs": [
        {
          "internalType": "uint256",
          "name": "",
          "type": "uint256"
        }
      ],
      "stateMutability": "view",
      "type": "function"
    },
    {
      "inputs": [
        {
          "internalType": "address",
          "name": "to",
          "type": "address"
        },
        {
          "internalType": "uint256",
          "name": "amount",
          "type": "uint256"
        }
      ],
      "name": "transfer",
      "outputs": [
        {
          "internalType": "bool",
          "name": "",
          "type": "bool"
        }
      ],
      "stateMutability": "nonpayable",
      "type": "function"
    },
    {
      "inputs": [
        {
          "internalType": "address",
          "name": "from",
          "type": "address"
        },
        {
          "internalType": "address",
          "name": "to",
          "type": "address"
        },
        {
          "internalType": "uint256",
          "name": "amount",
          "type": "uint256"
        }
      ],
      "name": "transferFrom",
      "outputs": [
        {
          "internalType": "bool",
          "name": "",
          "type": "bool"
        }
      ],
      "stateMutability": "nonpayable",
      "type": "function"
    },
    {
      "inputs": [
        {
          "internalType": "address",
          "name": "newOwner",
          "type": "address"
        }
      ],
      "name": "transferOwnership",
      "outputs": [],
      "stateMutability": "nonpayable",
      "type": "function"
    },
    {
      "inputs": [
        {
          "internalType": "uint256",
          "name": "_stakeId",
          "type": "uint256"
        }
      ],
      "name": "unstake",
      "outputs": [],
      "stateMutability": "nonpayable",
      "type": "function"
    },
    {
      "inputs": [
        {
          "internalType": "bool",
          "name": "bigTestCrashEvent",
          "type": "bool"
        },
        {
          "internalType": "bool",
          "name": "mediumTestCrashEvent",
          "type": "bool"
        },
        {
          "internalType": "bool",
          "name": "smallTestCrashEvent",
          "type": "bool"
        }
      ],
      "name": "updateTestCrashEvents",
      "outputs": [],
      "stateMutability": "nonpayable",
      "type": "function"
    }
  ],
  "bytecode": "0x608060405234801561001057600080fd5b5061001961001e565b6100dd565b600054610100900460ff161561008a5760405162461bcd60e51b815260206004820152602760248201527f496e697469616c697a61626c653a20636f6e747261637420697320696e697469604482015266616c697a696e6760c81b606482015260840160405180910390fd5b60005460ff908116146100db576000805460ff191660ff9081179091556040519081527f7f26b83ff96e1f2b6a682f133852f6798a09c465da95921460cefb38474024989060200160405180910390a15b565b61230580620000ed6000396000f3fe608060405234801561001057600080fd5b50600436106101a35760003560e01c8063715018a6116100ee57806395d89b4111610097578063b8d6b56411610071578063b8d6b56414610408578063dd62ed3e14610435578063f2fde38b1461046e578063fe9ada821461048157600080fd5b806395d89b41146103da578063a457c2d7146103e2578063a9059cbb146103f557600080fd5b80637ba6f458116100c85780637ba6f458146103975780638129fc1c146103b75780638da5cb5b146103bf57600080fd5b8063715018a61461035c578063762e54fc146103645780637b0472f01461038457600080fd5b80632e17de7811610150578063395093511161012a578063395093511461026c578063584b62a11461027f57806370a082311461033357600080fd5b80632e17de78146102345780632ff2e9dc14610249578063313ce5671461025d57600080fd5b806317f4cb8b1161018157806317f4cb8b1461020657806318160ddd1461021957806323b872dd1461022157600080fd5b806304c5619f146101a857806306fdde03146101ce578063095ea7b3146101e3575b600080fd5b6101bb6101b6366004611dd9565b610494565b6040519081526020015b60405180910390f35b6101d6610526565b6040516101c59190611e67565b6101f66101f1366004611ed1565b6105b8565b60405190151581526020016101c5565b6101bb610214366004611efb565b6105d2565b6035546101bb565b6101f661022f366004611f14565b6106ea565b610247610242366004611efb565b61070e565b005b6101bb6c054f529ca52576bc689200000081565b604051601281526020016101c5565b6101f661027a366004611ed1565b6109e9565b6102ef61028d366004611ed1565b609a60209081526000928352604080842082529183529181902080546001820154600283015460038401546004850154865160608101885260058701548152600687015498810198909852600790950154958701959095529194909391929086565b604080519687526020808801969096528681019490945260608601929092526080850152805160a08501529182015160c0840152015160e0820152610100016101c5565b6101bb610341366004611f50565b6001600160a01b031660009081526033602052604090205490565b610247610a28565b6101bb610372366004611f50565b609b6020526000908152604090205481565b610247610392366004611f6b565b610a3c565b6103aa6103a5366004611f50565b610da8565b6040516101c59190611f8d565b610247610f0c565b6065546040516001600160a01b0390911681526020016101c5565b6101d66110b7565b6101f66103f0366004611ed1565b6110c6565b6101f6610403366004611ed1565b611170565b60975460985460995461041a92919083565b604080519384526020840192909252908201526060016101c5565b6101bb61044336600461201e565b6001600160a01b03918216600090815260346020908152604080832093909416825291909152205490565b61024761047c366004611f50565b61117e565b61024761048f36600461205f565b61120b565b60a08101515160975460009182916104ac91906120c0565b905060008360a00151602001516097600101546104c991906120c0565b905060008460a00151604001516097600201546104e691906120c0565b90506104f38160026120d3565b6104fe83600e6120d3565b61050985602a6120d3565b61051391906120ea565b61051d91906120ea565b95945050505050565b606060368054610535906120fd565b80601f0160208091040260200160405190810160405280929190818152602001828054610561906120fd565b80156105ae5780601f10610583576101008083540402835291602001916105ae565b820191906000526020600020905b81548152906001019060200180831161059157829003601f168201915b5050505050905090565b6000336105c68185856112b3565b60019150505b92915050565b336000908152609a602090815260408083208484529091528120600101546106415760405162461bcd60e51b815260206004820152601960248201527f54686973207374616b6520646f6573206e6f742065786973740000000000000060448201526064015b60405180910390fd5b336000908152609a602090815260408083208584529091528120600181015460028201549192916106719161140b565b9050600061068c83600101544261140b90919063ffffffff16565b905082600201544211156106a557506064949350505050565b60018301546106b790624f1a006120ea565b4210156106c957506021949350505050565b816106d58260436120d3565b6106df919061214d565b61051d9060216120ea565b6000336106f885828561141e565b6107038585856114b0565b506001949350505050565b336000908152609a602090815260408083208484529091529020600101546107785760405162461bcd60e51b815260206004820152601960248201527f54686973207374616b6520646f6573206e6f74206578697374000000000000006044820152606401610638565b336000908152609a602090815260408083208484528252808320815160c08101835281548152600182015481850152600282015481840152600382015460608083019190915260048301546080830152835190810184526005830154815260068301549481019490945260078201549284019290925260a082019290925290919061080290610494565b9050600061081d8284600301546116a490919063ffffffff16565b9050600061089a82856040518060c00160405290816000820154815260200160018201548152602001600282015481526020016003820154815260200160048201548152602001600582016040518060600160405290816000820154815260200160018201548152602001600282015481525050815250506116b0565b905060006108c760646108c16108af896105d2565b88546108bb90876116a4565b90611774565b90611780565b90506108d3308261178c565b6040517fa9059cbb00000000000000000000000000000000000000000000000000000000815233600482015260248101829052309063a9059cbb906044016020604051808303816000875af1158015610930573d6000803e3d6000fd5b505050506040513d601f19601f820116820180604052508101906109549190612161565b50336000818152609a602090815260408083208a8452825280832083815560018101849055600281018490556003810184905560048101849055600581018490556006810184905560070192909255875482518a8152918201529081018390527fd9323ca80faaaf047170c44ee78d4bd7218de745b437ba055aaf1871e0e6e9049060600160405180910390a2505050505050565b3360008181526034602090815260408083206001600160a01b03871684529091528120549091906105c69082908690610a239087906120ea565b6112b3565b610a3061184e565b610a3a60006118a8565b565b60028111610ab25760405162461bcd60e51b815260206004820152602860248201527f5374616b696e6720706572696f64206d757374206265206174206c656173742060448201527f33206d6f6e7468730000000000000000000000000000000000000000000000006064820152608401610638565b6078811115610b295760405162461bcd60e51b815260206004820152603860248201527f5374616b696e6720706572696f642063616e206f6e6c79206265206d6178696d60448201527f756d20313230206d6f6e746873202831302079656172732900000000000000006064820152608401610638565b60008211610b9f5760405162461bcd60e51b815260206004820152602860248201527f5374616b696e6720616d6f756e74206d7573742062652067726561746572207460448201527f68616e207a65726f0000000000000000000000000000000000000000000000006064820152608401610638565b6040517f23b872dd000000000000000000000000000000000000000000000000000000008152336004820152306024820181905260448201849052906323b872dd906064016020604051808303816000875af1158015610c03573d6000803e3d6000fd5b505050506040513d601f19601f82011682018060405250810190610c279190612161565b506000610c3560038361214d565b610c4090600a6120ea565b90506000610c4f8360036120d3565b610c5a9060456120ea565b9050426000610c76610c6f8662278d00611774565b42906116a4565b6040805160c081018252888152602080820186815282840185815260608085018b815260808087018c815288518085018a52609754815260985481890152609954818b015260a0808a01918252336000818152609a8b528c8120609b808d528e832080548452918d528e83209d518e559a5160018e0155985160028d0155955160038c0155925160048b01559051805160058b01558089015160068b01558a015160079099019890985591829052938552915486519081529384018d9052948301869052938201899052810187905292935090917f3565f48109c628ce039ba3b5f6daa7004ca580280fd8101024bd193fd6064578910160405180910390a2336000908152609b6020526040902054610d909060016116a4565b336000908152609b6020526040902055505050505050565b6001600160a01b0381166000908152609b60205260408120546060919067ffffffffffffffff811115610ddd57610ddd611d77565b604051908082528060200260200182016040528015610e1657816020015b610e03611d20565b815260200190600190039081610dfb5790505b5090506000805b6001600160a01b0385166000908152609b6020526040902054811015610f03576001600160a01b0385166000908152609a60209081526040808320848452825291829020825160c0810184528154815260018201548184015260028201548185015260038201546060808301919091526004830154608083015284519081018552600583015481526006830154938101939093526007909101549282019290925260a08201528351849084908110610ed757610ed761217e565b60200260200101819052508180610eed90612194565b9250508080610efb90612194565b915050610e1d565b50909392505050565b600054610100900460ff1615808015610f2c5750600054600160ff909116105b80610f465750303b158015610f46575060005460ff166001145b610fb85760405162461bcd60e51b815260206004820152602e60248201527f496e697469616c697a61626c653a20636f6e747261637420697320616c72656160448201527f647920696e697469616c697a65640000000000000000000000000000000000006064820152608401610638565b6000805460ff191660011790558015610fdb576000805461ff0019166101001790555b61104f6040518060400160405280600e81526020017f546573744372617368546f6b656e0000000000000000000000000000000000008152506040518060400160405280600481526020017f5445534800000000000000000000000000000000000000000000000000000000815250611912565b611057611987565b61106e336c054f529ca52576bc689200000061178c565b80156110b4576000805461ff0019169055604051600181527f7f26b83ff96e1f2b6a682f133852f6798a09c465da95921460cefb38474024989060200160405180910390a15b50565b606060378054610535906120fd565b3360008181526034602090815260408083206001600160a01b0387168452909152812054909190838110156111635760405162461bcd60e51b815260206004820152602560248201527f45524332303a2064656372656173656420616c6c6f77616e63652062656c6f7760448201527f207a65726f0000000000000000000000000000000000000000000000000000006064820152608401610638565b61070382868684036112b3565b6000336105c68185856114b0565b61118661184e565b6001600160a01b0381166112025760405162461bcd60e51b815260206004820152602660248201527f4f776e61626c653a206e6577206f776e657220697320746865207a65726f206160448201527f64647265737300000000000000000000000000000000000000000000000000006064820152608401610638565b6110b4816118a8565b61121361184e565b821561122f576097805490600061122983612194565b91905055505b811561124b576098805490600061124583612194565b91905055505b8015611267576099805490600061126183612194565b91905055505b604080518415158152831515602082015282151581830152905133917f24cbf20df405c80162b1882fca0d720664230b5ed5e65bf8a3eaada485a7c348919081900360600190a2505050565b6001600160a01b03831661132e5760405162461bcd60e51b8152602060048201526024808201527f45524332303a20617070726f76652066726f6d20746865207a65726f2061646460448201527f72657373000000000000000000000000000000000000000000000000000000006064820152608401610638565b6001600160a01b0382166113aa5760405162461bcd60e51b815260206004820152602260248201527f45524332303a20617070726f766520746f20746865207a65726f20616464726560448201527f73730000000000000000000000000000000000000000000000000000000000006064820152608401610638565b6001600160a01b0383811660008181526034602090815260408083209487168084529482529182902085905590518481527f8c5be1e5ebec7d5bd14f71427d1e84f3dd0314c0f7b2291e5b200ac8c7c3b925910160405180910390a3505050565b600061141782846120c0565b9392505050565b6001600160a01b0383811660009081526034602090815260408083209386168352929052205460001981146114aa578181101561149d5760405162461bcd60e51b815260206004820152601d60248201527f45524332303a20696e73756666696369656e7420616c6c6f77616e63650000006044820152606401610638565b6114aa84848484036112b3565b50505050565b6001600160a01b03831661152c5760405162461bcd60e51b815260206004820152602560248201527f45524332303a207472616e736665722066726f6d20746865207a65726f20616460448201527f64726573730000000000000000000000000000000000000000000000000000006064820152608401610638565b6001600160a01b0382166115a85760405162461bcd60e51b815260206004820152602360248201527f45524332303a207472616e7366657220746f20746865207a65726f206164647260448201527f65737300000000000000000000000000000000000000000000000000000000006064820152608401610638565b6001600160a01b038316600090815260336020526040902054818110156116375760405162461bcd60e51b815260206004820152602660248201527f45524332303a207472616e7366657220616d6f756e742065786365656473206260448201527f616c616e636500000000000000000000000000000000000000000000000000006064820152608401610638565b6001600160a01b0380851660008181526033602052604080822086860390559286168082529083902080548601905591517fddf252ad1be2c89b69c2b068fc378daa952ba7f163c4a11628f55a4df523b3ef906116979086815260200190565b60405180910390a36114aa565b600061141782846120ea565b6000806116ca83602001514261140b90919063ffffffff16565b905060006116e98460200151856040015161140b90919063ffffffff16565b905083604001514211156116fb578091505b600061171c61171760646108c189670de0b6b3a7640000611774565b6119ff565b855190915060009061173a906b033b2e3c9fd0803ce8000000611774565b90506000611749828487611a38565b905060006117676b033b2e3c9fd0803ce80000006108c1848661140b565b9998505050505050505050565b600061141782846120d3565b6000611417828461214d565b6001600160a01b0382166117e25760405162461bcd60e51b815260206004820152601f60248201527f45524332303a206d696e7420746f20746865207a65726f2061646472657373006044820152606401610638565b80603560008282546117f491906120ea565b90915550506001600160a01b0382166000818152603360209081526040808320805486019055518481527fddf252ad1be2c89b69c2b068fc378daa952ba7f163c4a11628f55a4df523b3ef910160405180910390a35b5050565b6065546001600160a01b03163314610a3a5760405162461bcd60e51b815260206004820181905260248201527f4f776e61626c653a2063616c6c6572206973206e6f7420746865206f776e65726044820152606401610638565b606580546001600160a01b038381167fffffffffffffffffffffffff0000000000000000000000000000000000000000831681179093556040519116919082907f8be0079c531659141344cd1fd0a4f28419497f9722a3daafe3b4186f6b6457e090600090a35050565b600054610100900460ff1661197d5760405162461bcd60e51b815260206004820152602b60248201527f496e697469616c697a61626c653a20636f6e7472616374206973206e6f74206960448201526a6e697469616c697a696e6760a81b6064820152608401610638565b61184a8282611a55565b600054610100900460ff166119f25760405162461bcd60e51b815260206004820152602b60248201527f496e697469616c697a61626c653a20636f6e7472616374206973206e6f74206960448201526a6e697469616c697a696e6760a81b6064820152608401610638565b610a3a611ad9565b505050565b60006105cc611a15670de0b6b3a7640000611b4d565b611a33611a2185611b4d565b611a2e6301e13380611b5d565b611b75565b611ba6565b6000611a4d84611a488585611c04565b611c7d565b949350505050565b600054610100900460ff16611ac05760405162461bcd60e51b815260206004820152602b60248201527f496e697469616c697a61626c653a20636f6e7472616374206973206e6f74206960448201526a6e697469616c697a696e6760a81b6064820152608401610638565b6036611acc83826121fb565b5060376119fa82826121fb565b600054610100900460ff16611b445760405162461bcd60e51b815260206004820152602b60248201527f496e697469616c697a61626c653a20636f6e7472616374206973206e6f74206960448201526a6e697469616c697a696e6760a81b6064820152608401610638565b610a3a336118a8565b60006105cc82633b9aca00611cb0565b60006105cc826b033b2e3c9fd0803ce8000000611cb0565b600081611b9c611b91856b033b2e3c9fd0803ce8000000611cb0565b611a3360028661214d565b611417919061214d565b600082611bb383826120ea565b91508110156105cc5760405162461bcd60e51b815260206004820152601460248201527f64732d6d6174682d6164642d6f766572666c6f770000000000000000000000006044820152606401610638565b6000611c116002836122bb565b600003611c2a576b033b2e3c9fd0803ce8000000611c2c565b825b9050611c3960028361214d565b91505b81156105cc57611c4c8384611c7d565b9250611c596002836122bb565b15611c6b57611c688184611c7d565b90505b611c7660028361214d565b9150611c3c565b60006b033b2e3c9fd0803ce8000000611b9c611c998585611cb0565b611a3360026b033b2e3c9fd0803ce800000061214d565b6000811580611cd457508282611cc681836120d3565b9250611cd2908361214d565b145b6105cc5760405162461bcd60e51b815260206004820152601460248201527f64732d6d6174682d6d756c2d6f766572666c6f770000000000000000000000006044820152606401610638565b6040518060c001604052806000815260200160008152602001600081526020016000815260200160008152602001611d7260405180606001604052806000815260200160008152602001600081525090565b905290565b634e487b7160e01b600052604160045260246000fd5b60405160c0810167ffffffffffffffff81118282101715611db057611db0611d77565b60405290565b6040516060810167ffffffffffffffff81118282101715611db057611db0611d77565b6000818303610100811215611ded57600080fd5b611df5611d8d565b83358152602084013560208201526040840135604082015260608401356060820152608084013560808201526060609f1983011215611e3357600080fd5b611e3b611db6565b60a085810135825260c0860135602083015260e090950135604082015293810193909352509092915050565b600060208083528351808285015260005b81811015611e9457858101830151858201604001528201611e78565b506000604082860101526040601f19601f8301168501019250505092915050565b80356001600160a01b0381168114611ecc57600080fd5b919050565b60008060408385031215611ee457600080fd5b611eed83611eb5565b946020939093013593505050565b600060208284031215611f0d57600080fd5b5035919050565b600080600060608486031215611f2957600080fd5b611f3284611eb5565b9250611f4060208501611eb5565b9150604084013590509250925092565b600060208284031215611f6257600080fd5b61141782611eb5565b60008060408385031215611f7e57600080fd5b50508035926020909101359150565b602080825282518282018190526000919060409081850190868401855b828110156120115781518051855286810151878601528581015186860152606080820151908601526080808201519086015260a090810151805191860191909152602081015160c08601526040015160e08501526101009093019290850190600101611faa565b5091979650505050505050565b6000806040838503121561203157600080fd5b61203a83611eb5565b915061204860208401611eb5565b90509250929050565b80151581146110b457600080fd5b60008060006060848603121561207457600080fd5b833561207f81612051565b9250602084013561208f81612051565b9150604084013561209f81612051565b809150509250925092565b634e487b7160e01b600052601160045260246000fd5b818103818111156105cc576105cc6120aa565b80820281158282048414176105cc576105cc6120aa565b808201808211156105cc576105cc6120aa565b600181811c9082168061211157607f821691505b60208210810361213157634e487b7160e01b600052602260045260246000fd5b50919050565b634e487b7160e01b600052601260045260246000fd5b60008261215c5761215c612137565b500490565b60006020828403121561217357600080fd5b815161141781612051565b634e487b7160e01b600052603260045260246000fd5b6000600182016121a6576121a66120aa565b5060010190565b601f8211156119fa57600081815260208120601f850160051c810160208610156121d45750805b601f850160051c820191505b818110156121f3578281556001016121e0565b505050505050565b815167ffffffffffffffff81111561221557612215611d77565b6122298161222384546120fd565b846121ad565b602080601f83116001811461225e57600084156122465750858301515b600019600386901b1c1916600185901b1785556121f3565b600085815260208120601f198616915b8281101561228d5788860151825594840194600190910190840161226e565b50858210156122ab5787850151600019600388901b60f8161c191681555b5050505050600190811b01905550565b6000826122ca576122ca612137565b50069056fea26469706673582212201c3972279837091e7ef4de93cbb2f6a43c55b1204574037037c82aa9b1d878eb64736f6c63430008120033",
  "linkReferences": {},
  "deployedLinkReferences": {}
}